{
  "contractName": "OrganizationList",
  "abi": [
    {
      "constant": true,
      "inputs": [
        {
          "internalType": "uint256",
          "name": "",
          "type": "uint256"
        }
      ],
      "name": "issuedDocuments",
      "outputs": [
        {
          "internalType": "string",
          "name": "url",
          "type": "string"
        },
        {
          "internalType": "string",
          "name": "oid",
          "type": "string"
        },
        {
          "internalType": "string",
          "name": "userId",
          "type": "string"
        },
        {
          "internalType": "string",
          "name": "hasha",
          "type": "string"
        }
      ],
      "payable": false,
      "stateMutability": "view",
      "type": "function"
    },
    {
      "constant": true,
      "inputs": [
        {
          "internalType": "uint256",
          "name": "",
          "type": "uint256"
        }
      ],
      "name": "organizations",
      "outputs": [
        {
          "internalType": "string",
          "name": "id",
          "type": "string"
        },
        {
          "internalType": "string",
          "name": "name",
          "type": "string"
        },
        {
          "internalType": "string",
          "name": "secret",
          "type": "string"
        }
      ],
      "payable": false,
      "stateMutability": "view",
      "type": "function"
    },
    {
      "constant": true,
      "inputs": [
        {
          "internalType": "uint256",
          "name": "",
          "type": "uint256"
        }
      ],
      "name": "users",
      "outputs": [
        {
          "internalType": "string",
          "name": "id",
          "type": "string"
        },
        {
          "internalType": "string",
          "name": "name",
          "type": "string"
        },
        {
          "internalType": "string",
          "name": "secret",
          "type": "string"
        }
      ],
      "payable": false,
      "stateMutability": "view",
      "type": "function"
    },
    {
      "constant": false,
      "inputs": [
        {
          "internalType": "string",
          "name": "name",
          "type": "string"
        },
        {
          "internalType": "string",
          "name": "id",
          "type": "string"
        },
        {
          "internalType": "string",
          "name": "secret",
          "type": "string"
        }
      ],
      "name": "createOrganization",
      "outputs": [],
      "payable": false,
      "stateMutability": "nonpayable",
      "type": "function"
    },
    {
      "constant": false,
      "inputs": [
        {
          "internalType": "string",
          "name": "url",
          "type": "string"
        },
        {
          "internalType": "string",
          "name": "hasha",
          "type": "string"
        },
        {
          "internalType": "string",
          "name": "oid",
          "type": "string"
        },
        {
          "internalType": "string",
          "name": "userId",
          "type": "string"
        },
        {
          "internalType": "string",
          "name": "orgsecret",
          "type": "string"
        }
      ],
      "name": "issueDocument",
      "outputs": [
        {
          "internalType": "uint256",
          "name": "",
          "type": "uint256"
        }
      ],
      "payable": false,
      "stateMutability": "nonpayable",
      "type": "function"
    },
    {
      "constant": false,
      "inputs": [
        {
          "internalType": "uint256",
          "name": "index",
          "type": "uint256"
        }
      ],
      "name": "deleteDocument",
      "outputs": [],
      "payable": false,
      "stateMutability": "nonpayable",
      "type": "function"
    },
    {
      "constant": false,
      "inputs": [
        {
          "internalType": "string",
          "name": "name",
          "type": "string"
        },
        {
          "internalType": "string",
          "name": "id",
          "type": "string"
        },
        {
          "internalType": "string",
          "name": "secret",
          "type": "string"
        }
      ],
      "name": "createUser",
      "outputs": [],
      "payable": false,
      "stateMutability": "nonpayable",
      "type": "function"
    },
    {
      "constant": true,
      "inputs": [],
      "name": "getOrganization",
      "outputs": [
        {
          "internalType": "uint256",
          "name": "",
          "type": "uint256"
        }
      ],
      "payable": false,
      "stateMutability": "view",
      "type": "function"
    },
    {
      "constant": true,
      "inputs": [],
      "name": "getUser",
      "outputs": [
        {
          "internalType": "uint256",
          "name": "",
          "type": "uint256"
        }
      ],
      "payable": false,
      "stateMutability": "view",
      "type": "function"
    },
    {
      "constant": false,
      "inputs": [
        {
          "internalType": "string",
          "name": "userId",
          "type": "string"
        },
        {
          "internalType": "uint256",
          "name": "docIndex",
          "type": "uint256"
        }
      ],
      "name": "signDocument",
      "outputs": [],
      "payable": false,
      "stateMutability": "nonpayable",
      "type": "function"
    },
    {
      "constant": false,
      "inputs": [
        {
          "internalType": "string",
          "name": "url",
          "type": "string"
        },
        {
          "internalType": "string",
          "name": "oid",
          "type": "string"
        },
        {
          "internalType": "string",
          "name": "userId",
          "type": "string"
        },
        {
          "internalType": "uint256",
          "name": "docIndex",
          "type": "uint256"
        },
        {
          "internalType": "string",
          "name": "_hash",
          "type": "string"
        }
      ],
      "name": "verifyDocument",
      "outputs": [
        {
          "internalType": "bool",
          "name": "",
          "type": "bool"
        }
      ],
      "payable": false,
      "stateMutability": "nonpayable",
      "type": "function"
    }
  ],
  "bytecode": "0x608060405234801561001057600080fd5b50611ecd806100206000396000f3fe608060405234801561001057600080fd5b50600436106100a95760003560e01c8063a0fb149711610071578063a0fb1497146106e2578063abb8e21314610710578063b5e6b4941461072e578063c8370a80146109d0578063e792dd8a14610bbb578063f9a00ba414610d3a576100a9565b8063046c39d2146100ae57806323247b5614610173578063365b98b21461035c57806359ae069b146104db578063832880e7146106c4575b600080fd5b610171600480360360408110156100c457600080fd5b81019080803590602001906401000000008111156100e157600080fd5b8201836020820111156100f357600080fd5b8035906020019184600183028401116401000000008311171561011557600080fd5b91908080601f016020809104026020016040519081016040528093929190818152602001838380828437600081840152601f19601f82011690508083019250505050505050919291929080359060200190929190505050611065565b005b61035a6004803603606081101561018957600080fd5b81019080803590602001906401000000008111156101a657600080fd5b8201836020820111156101b857600080fd5b803590602001918460018302840111640100000000831117156101da57600080fd5b91908080601f016020809104026020016040519081016040528093929190818152602001838380828437600081840152601f19601f8201169050808301925050505050505091929192908035906020019064010000000081111561023d57600080fd5b82018360208201111561024f57600080fd5b8035906020019184600183028401116401000000008311171561027157600080fd5b91908080601f016020809104026020016040519081016040528093929190818152602001838380828437600081840152601f19601f820116905080830192505050505050509192919290803590602001906401000000008111156102d457600080fd5b8201836020820111156102e657600080fd5b8035906020019184600183028401116401000000008311171561030857600080fd5b91908080601f016020809104026020016040519081016040528093929190818152602001838380828437600081840152601f19601f820116905080830192505050505050509192919290505050611069565b005b6103886004803603602081101561037257600080fd5b810190808035906020019092919050505061111c565b60405180806020018060200180602001848103845287818151815260200191508051906020019080838360005b838110156103d05780820151818401526020810190506103b5565b50505050905090810190601f1680156103fd5780820380516001836020036101000a031916815260200191505b50848103835286818151815260200191508051906020019080838360005b8381101561043657808201518184015260208101905061041b565b50505050905090810190601f1680156104635780820380516001836020036101000a031916815260200191505b50848103825285818151815260200191508051906020019080838360005b8381101561049c578082015181840152602081019050610481565b50505050905090810190601f1680156104c95780820380516001836020036101000a031916815260200191505b50965050505050505060405180910390f35b6106c2600480360360608110156104f157600080fd5b810190808035906020019064010000000081111561050e57600080fd5b82018360208201111561052057600080fd5b8035906020019184600183028401116401000000008311171561054257600080fd5b91908080601f016020809104026020016040519081016040528093929190818152602001838380828437600081840152601f19601f820116905080830192505050505050509192919290803590602001906401000000008111156105a557600080fd5b8201836020820111156105b757600080fd5b803590602001918460018302840111640100000000831117156105d957600080fd5b91908080601f016020809104026020016040519081016040528093929190818152602001838380828437600081840152601f19601f8201169050808301925050505050505091929192908035906020019064010000000081111561063c57600080fd5b82018360208201111561064e57600080fd5b8035906020019184600183028401116401000000008311171561067057600080fd5b91908080601f016020809104026020016040519081016040528093929190818152602001838380828437600081840152601f19601f82011690508083019250505050505050919291929050505061131b565b005b6106cc6113ce565b6040518082815260200191505060405180910390f35b61070e600480360360208110156106f857600080fd5b81019080803590602001909291905050506113db565b005b610718611565565b6040518082815260200191505060405180910390f35b6109b6600480360360a081101561074457600080fd5b810190808035906020019064010000000081111561076157600080fd5b82018360208201111561077357600080fd5b8035906020019184600183028401116401000000008311171561079557600080fd5b91908080601f016020809104026020016040519081016040528093929190818152602001838380828437600081840152601f19601f820116905080830192505050505050509192919290803590602001906401000000008111156107f857600080fd5b82018360208201111561080a57600080fd5b8035906020019184600183028401116401000000008311171561082c57600080fd5b91908080601f016020809104026020016040519081016040528093929190818152602001838380828437600081840152601f19601f8201169050808301925050505050505091929192908035906020019064010000000081111561088f57600080fd5b8201836020820111156108a157600080fd5b803590602001918460018302840111640100000000831117156108c357600080fd5b91908080601f016020809104026020016040519081016040528093929190818152602001838380828437600081840152601f19601f820116905080830192505050505050509192919290803590602001909291908035906020019064010000000081111561093057600080fd5b82018360208201111561094257600080fd5b8035906020019184600183028401116401000000008311171561096457600080fd5b91908080601f016020809104026020016040519081016040528093929190818152602001838380828437600081840152601f19601f820116905080830192505050505050509192919290505050611572565b604051808215151515815260200191505060405180910390f35b6109fc600480360360208110156109e657600080fd5b81019080803590602001909291905050506117e5565b6040518080602001806020018060200180602001858103855289818151815260200191508051906020019080838360005b83811015610a48578082015181840152602081019050610a2d565b50505050905090810190601f168015610a755780820380516001836020036101000a031916815260200191505b50858103845288818151815260200191508051906020019080838360005b83811015610aae578082015181840152602081019050610a93565b50505050905090810190601f168015610adb5780820380516001836020036101000a031916815260200191505b50858103835287818151815260200191508051906020019080838360005b83811015610b14578082015181840152602081019050610af9565b50505050905090810190601f168015610b415780820380516001836020036101000a031916815260200191505b50858103825286818151815260200191508051906020019080838360005b83811015610b7a578082015181840152602081019050610b5f565b50505050905090810190601f168015610ba75780820380516001836020036101000a031916815260200191505b509850505050505050505060405180910390f35b610be760048036036020811015610bd157600080fd5b8101908080359060200190929190505050611a82565b60405180806020018060200180602001848103845287818151815260200191508051906020019080838360005b83811015610c2f578082015181840152602081019050610c14565b50505050905090810190601f168015610c5c5780820380516001836020036101000a031916815260200191505b50848103835286818151815260200191508051906020019080838360005b83811015610c95578082015181840152602081019050610c7a565b50505050905090810190601f168015610cc25780820380516001836020036101000a031916815260200191505b50848103825285818151815260200191508051906020019080838360005b83811015610cfb578082015181840152602081019050610ce0565b50505050905090810190601f168015610d285780820380516001836020036101000a031916815260200191505b50965050505050505060405180910390f35b61104f600480360360a0811015610d5057600080fd5b8101908080359060200190640100000000811115610d6d57600080fd5b820183602082011115610d7f57600080fd5b80359060200191846001830284011164010000000083111715610da157600080fd5b91908080601f016020809104026020016040519081016040528093929190818152602001838380828437600081840152601f19601f82011690508083019250505050505050919291929080359060200190640100000000811115610e0457600080fd5b820183602082011115610e1657600080fd5b80359060200191846001830284011164010000000083111715610e3857600080fd5b91908080601f016020809104026020016040519081016040528093929190818152602001838380828437600081840152601f19601f82011690508083019250505050505050919291929080359060200190640100000000811115610e9b57600080fd5b820183602082011115610ead57600080fd5b80359060200191846001830284011164010000000083111715610ecf57600080fd5b91908080601f016020809104026020016040519081016040528093929190818152602001838380828437600081840152601f19601f82011690508083019250505050505050919291929080359060200190640100000000811115610f3257600080fd5b820183602082011115610f4457600080fd5b80359060200191846001830284011164010000000083111715610f6657600080fd5b91908080601f016020809104026020016040519081016040528093929190818152602001838380828437600081840152601f19601f82011690508083019250505050505050919291929080359060200190640100000000811115610fc957600080fd5b820183602082011115610fdb57600080fd5b80359060200191846001830284011164010000000083111715610ffd57600080fd5b91908080601f016020809104026020016040519081016040528093929190818152602001838380828437600081840152601f19601f820116905080830192505050505050509192919290505050611c81565b6040518082815260200191505060405180910390f35b5050565b611071611d89565b60405180606001604052808581526020018481526020018381525090506001819080600181540180825580915050906001820390600052602060002090600302016000909192909190915060008201518160000190805190602001906110d8929190611daa565b5060208201518160010190805190602001906110f5929190611daa565b506040820151816002019080519060200190611112929190611daa565b5050505050505050565b6002818154811061112957fe5b9060005260206000209060030201600091509050806000018054600181600116156101000203166002900480601f0160208091040260200160405190810160405280929190818152602001828054600181600116156101000203166002900480156111d55780601f106111aa576101008083540402835291602001916111d5565b820191906000526020600020905b8154815290600101906020018083116111b857829003601f168201915b505050505090806001018054600181600116156101000203166002900480601f0160208091040260200160405190810160405280929190818152602001828054600181600116156101000203166002900480156112735780601f1061124857610100808354040283529160200191611273565b820191906000526020600020905b81548152906001019060200180831161125657829003601f168201915b505050505090806002018054600181600116156101000203166002900480601f0160208091040260200160405190810160405280929190818152602001828054600181600116156101000203166002900480156113115780601f106112e657610100808354040283529160200191611311565b820191906000526020600020905b8154815290600101906020018083116112f457829003601f168201915b5050505050905083565b611323611e2a565b604051806060016040528085815260200184815260200183815250905060028190806001815401808255809150509060018203906000526020600020906003020160009091929091909150600082015181600001908051906020019061138a929190611daa565b5060208201518160010190805190602001906113a7929190611daa565b5060408201518160020190805190602001906113c4929190611daa565b5050505050505050565b6000600280549050905090565b60405180608001604052806040518060400160405280600481526020017f6e756c6c0000000000000000000000000000000000000000000000000000000081525081526020016040518060400160405280600481526020017f6e756c6c0000000000000000000000000000000000000000000000000000000081525081526020016040518060400160405280600481526020017f6e756c6c0000000000000000000000000000000000000000000000000000000081525081526020016040518060400160405280600481526020017f6e756c6c00000000000000000000000000000000000000000000000000000000815250815250600082815481106114dd57fe5b90600052602060002090600402016000820151816000019080519060200190611507929190611daa565b506020820151816001019080519060200190611524929190611daa565b506040820151816002019080519060200190611541929190611daa565b50606082015181600301908051906020019061155e929190611daa565b5090505050565b6000600180549050905090565b600081805190602001206000848154811061158957fe5b906000526020600020906004020160030160405180828054600181600116156101000203166002900480156115f55780601f106115d35761010080835404028352918201916115f5565b820191906000526020600020905b8154815290600101906020018083116115e1575b5050915050604051809103902014158061169b575085805190602001206000848154811061161f57fe5b9060005260206000209060040201600001604051808280546001816001161561010002031660029004801561168b5780601f1061166957610100808354040283529182019161168b565b820191906000526020600020905b815481529060010190602001808311611677575b5050915050604051809103902014155b8061173257508380519060200120600084815481106116b657fe5b906000526020600020906004020160020160405180828054600181600116156101000203166002900480156117225780601f10611700576101008083540402835291820191611722565b820191906000526020600020905b81548152906001019060200180831161170e575b5050915050604051809103902014155b806117c9575084805190602001206000848154811061174d57fe5b906000526020600020906004020160010160405180828054600181600116156101000203166002900480156117b95780601f106117975761010080835404028352918201916117b9565b820191906000526020600020905b8154815290600101906020018083116117a5575b5050915050604051809103902014155b156117d757600090506117dc565b600190505b95945050505050565b600081815481106117f257fe5b9060005260206000209060040201600091509050806000018054600181600116156101000203166002900480601f01602080910402602001604051908101604052809291908181526020018280546001816001161561010002031660029004801561189e5780601f106118735761010080835404028352916020019161189e565b820191906000526020600020905b81548152906001019060200180831161188157829003601f168201915b505050505090806001018054600181600116156101000203166002900480601f01602080910402602001604051908101604052809291908181526020018280546001816001161561010002031660029004801561193c5780601f106119115761010080835404028352916020019161193c565b820191906000526020600020905b81548152906001019060200180831161191f57829003601f168201915b505050505090806002018054600181600116156101000203166002900480601f0160208091040260200160405190810160405280929190818152602001828054600181600116156101000203166002900480156119da5780601f106119af576101008083540402835291602001916119da565b820191906000526020600020905b8154815290600101906020018083116119bd57829003601f168201915b505050505090806003018054600181600116156101000203166002900480601f016020809104026020016040519081016040528092919081815260200182805460018160011615610100020316600290048015611a785780601f10611a4d57610100808354040283529160200191611a78565b820191906000526020600020905b815481529060010190602001808311611a5b57829003601f168201915b5050505050905084565b60018181548110611a8f57fe5b9060005260206000209060030201600091509050806000018054600181600116156101000203166002900480601f016020809104026020016040519081016040528092919081815260200182805460018160011615610100020316600290048015611b3b5780601f10611b1057610100808354040283529160200191611b3b565b820191906000526020600020905b815481529060010190602001808311611b1e57829003601f168201915b505050505090806001018054600181600116156101000203166002900480601f016020809104026020016040519081016040528092919081815260200182805460018160011615610100020316600290048015611bd95780601f10611bae57610100808354040283529160200191611bd9565b820191906000526020600020905b815481529060010190602001808311611bbc57829003601f168201915b505050505090806002018054600181600116156101000203166002900480601f016020809104026020016040519081016040528092919081815260200182805460018160011615610100020316600290048015611c775780601f10611c4c57610100808354040283529160200191611c77565b820191906000526020600020905b815481529060010190602001808311611c5a57829003601f168201915b5050505050905083565b60008180519060200120828051906020012014611ca15760009050611d80565b611ca9611e4b565b6040518060800160405280888152602001868152602001858152602001878152509050600080805490509050600082908060018154018082558091505090600182039060005260206000209060040201600090919290919091506000820151816000019080519060200190611d1f929190611daa565b506020820151816001019080519060200190611d3c929190611daa565b506040820151816002019080519060200190611d59929190611daa565b506060820151816003019080519060200190611d76929190611daa565b5050505080925050505b95945050505050565b60405180606001604052806060815260200160608152602001606081525090565b828054600181600116156101000203166002900490600052602060002090601f016020900481019282601f10611deb57805160ff1916838001178555611e19565b82800160010185558215611e19579182015b82811115611e18578251825591602001919060010190611dfd565b5b509050611e269190611e73565b5090565b60405180606001604052806060815260200160608152602001606081525090565b6040518060800160405280606081526020016060815260200160608152602001606081525090565b611e9591905b80821115611e91576000816000905550600101611e79565b5090565b9056fea265627a7a72315820e59a6d2f04b8b3369d8c4b2389d35dbb2e6f2f9f69a42a536961b126b0436c2664736f6c63430005100032",
  "source": "pragma solidity >=0.4.0 <0.7.0;\r\n\r\ncontract OrganizationList {\r\n    struct DocumentList {\r\n        uint256 userid;\r\n        Document[] signedDocs;\r\n    }\r\n    struct Document {\r\n        string url;\r\n        string oid;\r\n        string userId;\r\n        string hasha;\r\n    }\r\n    struct Organization {\r\n        string id;\r\n        string name;\r\n        string secret;\r\n    }\r\n    struct User {\r\n        string id;\r\n        string name;\r\n        string secret;\r\n    }\r\n\r\n    //containers\r\n    Document[] public issuedDocuments;\r\n    Organization[] public organizations;\r\n    User[] public users;\r\n\r\n    //Other useful maps\r\n    // to return corresponding index of a unique string in the array of organizations\r\n    mapping(string => uint256) corresOrg;\r\n    mapping(string => uint256) corresUser;\r\n    mapping(string => uint256) corresDocument;\r\n\r\n    //class methods\r\n\r\n    function createOrganization(\r\n        string memory name,\r\n        string memory id,\r\n        string memory secret\r\n    ) public  {\r\n        Organization memory newOrg = Organization(name, id, secret);\r\n        organizations.push(newOrg);\r\n    }\r\n\r\n    //Organization related functions\r\n    function issueDocument(\r\n        string memory url,\r\n        string memory hasha,\r\n        string memory oid,\r\n        string memory userId,\r\n        string memory orgsecret\r\n    ) public returns (uint256) {\r\n        if (keccak256(bytes(orgsecret)) != keccak256(bytes(orgsecret))) {\r\n            return 0;\r\n        }\r\n\r\n        Document memory newDoc = Document(url, oid, userId, hasha);\r\n        uint256 l = issuedDocuments.length;\r\n        issuedDocuments.push(newDoc);\r\n        return l;\r\n    }\r\n\r\n    function deleteDocument(uint256 index) public {\r\n        issuedDocuments[index] = Document(\"null\", \"null\", \"null\", \"null\");\r\n    }\r\n\r\n    //User related functions\r\n    // uint is the user id, DocumentList is the list of documents he has signed\r\n    mapping(uint256 => DocumentList) signedAgreement;\r\n\r\n    function createUser(\r\n        string memory name,\r\n        string memory id,\r\n        string memory secret\r\n    ) public {\r\n         User memory newUser = User(name, id, secret);\r\n         users.push(newUser);\r\n    }\r\n    function getOrganization() public view returns (uint256) {\r\n        return organizations.length;\r\n    }\r\n    function getUser() public view returns (uint256) {\r\n        return users.length;\r\n    }\r\n\r\n    function signDocument(string memory userId, uint256 docIndex) public {\r\n        // uint256 userIndex = corresUser[userId];\r\n        // signedAgreement[userIndex] = DocumentList(userIndex,issuedDocuments[docIndex]);\r\n    }\r\n\r\n    //General functions\r\n\r\n    function verifyDocument(\r\n        string memory url,\r\n        string memory oid,\r\n        string memory userId,\r\n        uint256 docIndex,\r\n        string memory _hash\r\n    ) public returns (bool) {\r\n        if (\r\n            keccak256(bytes(issuedDocuments[docIndex].hasha)) !=\r\n            keccak256(bytes(_hash)) ||\r\n            keccak256(bytes(issuedDocuments[docIndex].url)) !=\r\n            keccak256(bytes(url)) ||\r\n            keccak256(bytes(issuedDocuments[docIndex].userId)) !=\r\n            keccak256(bytes(userId)) ||\r\n            keccak256(bytes(issuedDocuments[docIndex].oid)) !=\r\n            keccak256(bytes(oid))\r\n        ) {\r\n            return false;\r\n        }\r\n        return true;\r\n    }\r\n}\r\n",
  "sourcePath": "F:\\DecDocs-blockchain\\contracts\\OrganizationList.sol",
  "compiler": {
    "name": "solc",
    "version": "0.5.16+commit.9c3226ce.Emscripten.clang"
  },
  "schemaVersion": "3.1.0",
  "updatedAt": "2020-07-14T18:00:35.719Z",
  "networkType": "ethereum",
  "devdoc": {
    "methods": {}
  },
  "userdoc": {
    "methods": {}
  }
}