{
  "contractName": "OrganizationList",
  "abi": [
    {
      "constant": true,
      "inputs": [
        {
          "internalType": "uint256",
          "name": "",
          "type": "uint256"
        }
      ],
      "name": "issuedDocuments",
      "outputs": [
        {
          "internalType": "string",
          "name": "url",
          "type": "string"
        },
        {
          "internalType": "uint256",
          "name": "oid",
          "type": "uint256"
        },
        {
          "internalType": "uint256",
          "name": "userId",
          "type": "uint256"
        },
        {
          "internalType": "string",
          "name": "hasha",
          "type": "string"
        }
      ],
      "payable": false,
      "stateMutability": "view",
      "type": "function"
    },
    {
      "constant": true,
      "inputs": [
        {
          "internalType": "uint256",
          "name": "",
          "type": "uint256"
        }
      ],
      "name": "organizations",
      "outputs": [
        {
          "internalType": "string",
          "name": "name",
          "type": "string"
        },
        {
          "internalType": "string",
          "name": "secret",
          "type": "string"
        }
      ],
      "payable": false,
      "stateMutability": "view",
      "type": "function"
    },
    {
      "constant": true,
      "inputs": [
        {
          "internalType": "uint256",
          "name": "",
          "type": "uint256"
        }
      ],
      "name": "signedDocuments",
      "outputs": [
        {
          "internalType": "string",
          "name": "hasha",
          "type": "string"
        },
        {
          "internalType": "uint256",
          "name": "user1",
          "type": "uint256"
        },
        {
          "internalType": "uint256",
          "name": "user2",
          "type": "uint256"
        }
      ],
      "payable": false,
      "stateMutability": "view",
      "type": "function"
    },
    {
      "constant": true,
      "inputs": [
        {
          "internalType": "uint256",
          "name": "",
          "type": "uint256"
        }
      ],
      "name": "users",
      "outputs": [
        {
          "internalType": "string",
          "name": "name",
          "type": "string"
        },
        {
          "internalType": "string",
          "name": "secret",
          "type": "string"
        }
      ],
      "payable": false,
      "stateMutability": "view",
      "type": "function"
    },
    {
      "constant": false,
      "inputs": [
        {
          "internalType": "string",
          "name": "name",
          "type": "string"
        },
        {
          "internalType": "string",
          "name": "secret",
          "type": "string"
        }
      ],
      "name": "createOrganization",
      "outputs": [],
      "payable": false,
      "stateMutability": "nonpayable",
      "type": "function"
    },
    {
      "constant": false,
      "inputs": [
        {
          "internalType": "string",
          "name": "url",
          "type": "string"
        },
        {
          "internalType": "string",
          "name": "hasha",
          "type": "string"
        },
        {
          "internalType": "uint256",
          "name": "oid",
          "type": "uint256"
        },
        {
          "internalType": "uint256",
          "name": "userId",
          "type": "uint256"
        },
        {
          "internalType": "string",
          "name": "orgsecret",
          "type": "string"
        }
      ],
      "name": "issueDocument",
      "outputs": [],
      "payable": false,
      "stateMutability": "nonpayable",
      "type": "function"
    },
    {
      "constant": false,
      "inputs": [
        {
          "internalType": "uint256",
          "name": "index",
          "type": "uint256"
        }
      ],
      "name": "deleteDocument",
      "outputs": [],
      "payable": false,
      "stateMutability": "nonpayable",
      "type": "function"
    },
    {
      "constant": false,
      "inputs": [
        {
          "internalType": "string",
          "name": "name",
          "type": "string"
        },
        {
          "internalType": "string",
          "name": "secret",
          "type": "string"
        }
      ],
      "name": "createUser",
      "outputs": [],
      "payable": false,
      "stateMutability": "nonpayable",
      "type": "function"
    },
    {
      "constant": true,
      "inputs": [],
      "name": "getOrganization",
      "outputs": [
        {
          "internalType": "uint256",
          "name": "",
          "type": "uint256"
        }
      ],
      "payable": false,
      "stateMutability": "view",
      "type": "function"
    },
    {
      "constant": true,
      "inputs": [],
      "name": "getUser",
      "outputs": [
        {
          "internalType": "uint256",
          "name": "",
          "type": "uint256"
        }
      ],
      "payable": false,
      "stateMutability": "view",
      "type": "function"
    },
    {
      "constant": true,
      "inputs": [],
      "name": "getIssueDocument",
      "outputs": [
        {
          "internalType": "uint256",
          "name": "",
          "type": "uint256"
        }
      ],
      "payable": false,
      "stateMutability": "view",
      "type": "function"
    },
    {
      "constant": false,
      "inputs": [
        {
          "internalType": "uint256",
          "name": "userIndex1",
          "type": "uint256"
        },
        {
          "internalType": "uint256",
          "name": "userIndex2",
          "type": "uint256"
        },
        {
          "internalType": "string",
          "name": "hasha",
          "type": "string"
        }
      ],
      "name": "signDocument",
      "outputs": [],
      "payable": false,
      "stateMutability": "nonpayable",
      "type": "function"
    },
    {
      "constant": true,
      "inputs": [
        {
          "internalType": "string",
          "name": "hasha",
          "type": "string"
        }
      ],
      "name": "checkSign1",
      "outputs": [
        {
          "internalType": "uint256",
          "name": "",
          "type": "uint256"
        }
      ],
      "payable": false,
      "stateMutability": "view",
      "type": "function"
    },
    {
      "constant": true,
      "inputs": [
        {
          "internalType": "string",
          "name": "hasha",
          "type": "string"
        }
      ],
      "name": "checkSign2",
      "outputs": [
        {
          "internalType": "uint256",
          "name": "",
          "type": "uint256"
        }
      ],
      "payable": false,
      "stateMutability": "view",
      "type": "function"
    },
    {
      "constant": false,
      "inputs": [
        {
          "internalType": "uint256",
          "name": "oid",
          "type": "uint256"
        },
        {
          "internalType": "uint256",
          "name": "userId",
          "type": "uint256"
        },
        {
          "internalType": "uint256",
          "name": "docIndex",
          "type": "uint256"
        }
      ],
      "name": "verifyDocument",
      "outputs": [
        {
          "internalType": "bool",
          "name": "",
          "type": "bool"
        }
      ],
      "payable": false,
      "stateMutability": "nonpayable",
      "type": "function"
    }
  ],
  "bytecode": "0x608060405234801561001057600080fd5b506118e9806100206000396000f3fe608060405234801561001057600080fd5b50600436106100f55760003560e01c8063a0fb149711610097578063c46b104811610066578063c46b1048146107e6578063c8370a80146108b5578063d8660eb2146109d6578063e792dd8a14610bd3576100f5565b8063a0fb149714610579578063a411ef20146105a7578063abb8e213146106f9578063b4100ab714610717576100f5565b80636b7a0be6116100d35780636b7a0be614610336578063832880e7146103eb57806387b162b5146104095780638cb6c88d1461055b576100f5565b80631b886419146100fa578063365b98b2146101545780634b599bc814610267575b600080fd5b61013a6004803603606081101561011057600080fd5b81019080803590602001909291908035906020019092919080359060200190929190505050610ce6565b604051808215151515815260200191505060405180910390f35b6101806004803603602081101561016a57600080fd5b8101908080359060200190929190505050610d4d565b604051808060200180602001838103835285818151815260200191508051906020019080838360005b838110156101c45780820151818401526020810190506101a9565b50505050905090810190601f1680156101f15780820380516001836020036101000a031916815260200191505b50838103825284818151815260200191508051906020019080838360005b8381101561022a57808201518184015260208101905061020f565b50505050905090810190601f1680156102575780820380516001836020036101000a031916815260200191505b5094505050505060405180910390f35b6103206004803603602081101561027d57600080fd5b810190808035906020019064010000000081111561029a57600080fd5b8201836020820111156102ac57600080fd5b803590602001918460018302840111640100000000831117156102ce57600080fd5b91908080601f016020809104026020016040519081016040528093929190818152602001838380828437600081840152601f19601f820116905080830192505050505050509192919290505050610eae565b6040518082815260200191505060405180910390f35b6103626004803603602081101561034c57600080fd5b8101908080359060200190929190505050610f92565b6040518080602001848152602001838152602001828103825285818151815260200191508051906020019080838360005b838110156103ae578082015181840152602081019050610393565b50505050905090810190601f1680156103db5780820380516001836020036101000a031916815260200191505b5094505050505060405180910390f35b6103f3611061565b6040518082815260200191505060405180910390f35b6105596004803603604081101561041f57600080fd5b810190808035906020019064010000000081111561043c57600080fd5b82018360208201111561044e57600080fd5b8035906020019184600183028401116401000000008311171561047057600080fd5b91908080601f016020809104026020016040519081016040528093929190818152602001838380828437600081840152601f19601f820116905080830192505050505050509192919290803590602001906401000000008111156104d357600080fd5b8201836020820111156104e557600080fd5b8035906020019184600183028401116401000000008311171561050757600080fd5b91908080601f016020809104026020016040519081016040528093929190818152602001838380828437600081840152601f19601f82011690508083019250505050505050919291929050505061106e565b005b6105636110fd565b6040518082815260200191505060405180910390f35b6105a56004803603602081101561058f57600080fd5b8101908080359060200190929190505050611109565b005b6106f7600480360360408110156105bd57600080fd5b81019080803590602001906401000000008111156105da57600080fd5b8201836020820111156105ec57600080fd5b8035906020019184600183028401116401000000008311171561060e57600080fd5b91908080601f016020809104026020016040519081016040528093929190818152602001838380828437600081840152601f19601f8201169050808301925050505050505091929192908035906020019064010000000081111561067157600080fd5b82018360208201111561068357600080fd5b803590602001918460018302840111640100000000831117156106a557600080fd5b91908080601f016020809104026020016040519081016040528093929190818152602001838380828437600081840152601f19601f820116905080830192505050505050509192919290505050611205565b005b610701611294565b6040518082815260200191505060405180910390f35b6107e46004803603606081101561072d57600080fd5b8101908080359060200190929190803590602001909291908035906020019064010000000081111561075e57600080fd5b82018360208201111561077057600080fd5b8035906020019184600183028401116401000000008311171561079257600080fd5b91908080601f016020809104026020016040519081016040528093929190818152602001838380828437600081840152601f19601f8201169050808301925050505050505091929192905050506112a1565b005b61089f600480360360208110156107fc57600080fd5b810190808035906020019064010000000081111561081957600080fd5b82018360208201111561082b57600080fd5b8035906020019184600183028401116401000000008311171561084d57600080fd5b91908080601f016020809104026020016040519081016040528093929190818152602001838380828437600081840152601f19601f82011690508083019250505050505050919291929050505061132e565b6040518082815260200191505060405180910390f35b6108e1600480360360208110156108cb57600080fd5b8101908080359060200190929190505050611412565b604051808060200185815260200184815260200180602001838103835287818151815260200191508051906020019080838360005b83811015610931578082015181840152602081019050610916565b50505050905090810190601f16801561095e5780820380516001836020036101000a031916815260200191505b50838103825284818151815260200191508051906020019080838360005b8381101561099757808201518184015260208101905061097c565b50505050905090810190601f1680156109c45780820380516001836020036101000a031916815260200191505b50965050505050505060405180910390f35b610bd1600480360360a08110156109ec57600080fd5b8101908080359060200190640100000000811115610a0957600080fd5b820183602082011115610a1b57600080fd5b80359060200191846001830284011164010000000083111715610a3d57600080fd5b91908080601f016020809104026020016040519081016040528093929190818152602001838380828437600081840152601f19601f82011690508083019250505050505050919291929080359060200190640100000000811115610aa057600080fd5b820183602082011115610ab257600080fd5b80359060200191846001830284011164010000000083111715610ad457600080fd5b91908080601f016020809104026020016040519081016040528093929190818152602001838380828437600081840152601f19601f820116905080830192505050505050509192919290803590602001909291908035906020019092919080359060200190640100000000811115610b4b57600080fd5b820183602082011115610b5d57600080fd5b80359060200191846001830284011164010000000083111715610b7f57600080fd5b91908080601f016020809104026020016040519081016040528093929190818152602001838380828437600081840152601f19601f82011690508083019250505050505050919291929050505061157f565b005b610bff60048036036020811015610be957600080fd5b8101908080359060200190929190505050611631565b604051808060200180602001838103835285818151815260200191508051906020019080838360005b83811015610c43578082015181840152602081019050610c28565b50505050905090810190601f168015610c705780820380516001836020036101000a031916815260200191505b50838103825284818151815260200191508051906020019080838360005b83811015610ca9578082015181840152602081019050610c8e565b50505050905090810190601f168015610cd65780820380516001836020036101000a031916815260200191505b5094505050505060405180910390f35b60008260008381548110610cf657fe5b906000526020600020906004020160020154141580610d3357508360008381548110610d1e57fe5b90600052602060002090600402016001015414155b15610d415760009050610d46565b600190505b9392505050565b60038181548110610d5a57fe5b9060005260206000209060020201600091509050806000018054600181600116156101000203166002900480601f016020809104026020016040519081016040528092919081815260200182805460018160011615610100020316600290048015610e065780601f10610ddb57610100808354040283529160200191610e06565b820191906000526020600020905b815481529060010190602001808311610de957829003601f168201915b505050505090806001018054600181600116156101000203166002900480601f016020809104026020016040519081016040528092919081815260200182805460018160011615610100020316600290048015610ea45780601f10610e7957610100808354040283529160200191610ea4565b820191906000526020600020905b815481529060010190602001808311610e8757829003601f168201915b5050505050905082565b600080600090505b600180549050811015610f8b57828051906020012060018281548110610ed857fe5b90600052602060002090600302016000016040518082805460018160011615610100020316600290048015610f445780601f10610f22576101008083540402835291820191610f44565b820191906000526020600020905b815481529060010190602001808311610f30575b505091505060405180910390201415610f7e5760018181548110610f6457fe5b906000526020600020906003020160020154915050610f8d565b8080600101915050610eb6565b505b919050565b60018181548110610f9f57fe5b9060005260206000209060030201600091509050806000018054600181600116156101000203166002900480601f01602080910402602001604051908101604052809291908181526020018280546001816001161561010002031660029004801561104b5780601f106110205761010080835404028352916020019161104b565b820191906000526020600020905b81548152906001019060200180831161102e57829003601f168201915b5050505050908060010154908060020154905083565b6000600380549050905090565b611076611792565b60405180604001604052808481526020018381525090506003819080600181540180825580915050906001820390600052602060002090600202016000909192909190915060008201518160000190805190602001906110d79291906117ac565b5060208201518160010190805190602001906110f49291906117ac565b50505050505050565b60008080549050905090565b60405180608001604052806040518060400160405280600481526020017f6e756c6c00000000000000000000000000000000000000000000000000000000815250815260200160c8815260200160c881526020016040518060400160405280600481526020017f6e756c6c00000000000000000000000000000000000000000000000000000000815250815250600082815481106111a357fe5b906000526020600020906004020160008201518160000190805190602001906111cd9291906117ac565b50602082015181600101556040820151816002015560608201518160030190805190602001906111fe9291906117ac565b5090505050565b61120d61182c565b604051806040016040528084815260200183815250905060028190806001815401808255809150509060018203906000526020600020906002020160009091929091909150600082015181600001908051906020019061126e9291906117ac565b50602082015181600101908051906020019061128b9291906117ac565b50505050505050565b6000600280549050905090565b6112a9611846565b60405180606001604052808381526020018581526020018481525090506001819080600181540180825580915050906001820390600052602060002090600302016000909192909190915060008201518160000190805190602001906113109291906117ac565b50602082015181600101556040820151816002015550505050505050565b600080600090505b60018054905081101561140b5782805190602001206001828154811061135857fe5b906000526020600020906003020160000160405180828054600181600116156101000203166002900480156113c45780601f106113a25761010080835404028352918201916113c4565b820191906000526020600020905b8154815290600101906020018083116113b0575b5050915050604051809103902014156113fe57600181815481106113e457fe5b90600052602060002090600302016001015491505061140d565b8080600101915050611336565b505b919050565b6000818154811061141f57fe5b9060005260206000209060040201600091509050806000018054600181600116156101000203166002900480601f0160208091040260200160405190810160405280929190818152602001828054600181600116156101000203166002900480156114cb5780601f106114a0576101008083540402835291602001916114cb565b820191906000526020600020905b8154815290600101906020018083116114ae57829003601f168201915b505050505090806001015490806002015490806003018054600181600116156101000203166002900480601f0160208091040260200160405190810160405280929190818152602001828054600181600116156101000203166002900480156115755780601f1061154a57610100808354040283529160200191611575565b820191906000526020600020905b81548152906001019060200180831161155857829003601f168201915b5050505050905084565b611587611867565b60405180608001604052808781526020018581526020018481526020018681525090506000819080600181540180825580915050906001820390600052602060002090600402016000909192909190915060008201518160000190805190602001906115f49291906117ac565b50602082015181600101556040820151816002015560608201518160030190805190602001906116259291906117ac565b50505050505050505050565b6002818154811061163e57fe5b9060005260206000209060020201600091509050806000018054600181600116156101000203166002900480601f0160208091040260200160405190810160405280929190818152602001828054600181600116156101000203166002900480156116ea5780601f106116bf576101008083540402835291602001916116ea565b820191906000526020600020905b8154815290600101906020018083116116cd57829003601f168201915b505050505090806001018054600181600116156101000203166002900480601f0160208091040260200160405190810160405280929190818152602001828054600181600116156101000203166002900480156117885780601f1061175d57610100808354040283529160200191611788565b820191906000526020600020905b81548152906001019060200180831161176b57829003601f168201915b5050505050905082565b604051806040016040528060608152602001606081525090565b828054600181600116156101000203166002900490600052602060002090601f016020900481019282601f106117ed57805160ff191683800117855561181b565b8280016001018555821561181b579182015b8281111561181a5782518255916020019190600101906117ff565b5b509050611828919061188f565b5090565b604051806040016040528060608152602001606081525090565b60405180606001604052806060815260200160008152602001600081525090565b6040518060800160405280606081526020016000815260200160008152602001606081525090565b6118b191905b808211156118ad576000816000905550600101611895565b5090565b9056fea265627a7a72315820d397c98420f8b42250c5ecb97aaa4c0122c3dbe00bdc0e017de78ea507a2574a64736f6c63430005100032",
  "source": "pragma solidity >=0.4.0 <0.7.9;\r\n\r\ncontract OrganizationList {\r\n    //user user signed relations are here\r\n    struct DocumentList {\r\n        uint256 userid;\r\n        Document[] signedDocs;\r\n    }\r\n    struct Document {\r\n        string url;\r\n        uint256 oid;\r\n        uint256 userId;\r\n        string hasha;\r\n    }\r\n    struct Organization {\r\n        string name;\r\n        string secret;\r\n    }\r\n    struct User {\r\n        string name;\r\n        string secret;\r\n    }\r\n\r\n    struct Sgnd {\r\n        string hasha;\r\n        uint256 user1;\r\n        uint256 user2;\r\n    }\r\n    //containers\r\n    Document[] public issuedDocuments;\r\n    Sgnd[] public signedDocuments;\r\n\r\n    Organization[] public organizations;\r\n    User[] public users;\r\n\r\n    //Other useful maps\r\n    // to return corresponding index of a unique string in the array of organizations\r\n    mapping(string => uint256) corresOrg;\r\n    mapping(string => uint256) corresUser;\r\n    mapping(string => uint256) corresDocument;\r\n\r\n    //class methods\r\n\r\n    function createOrganization(string memory name, string memory secret)\r\n        public\r\n    {\r\n        Organization memory newOrg = Organization(name, secret);\r\n        organizations.push(newOrg);\r\n    }\r\n\r\n    //Organization related functions\r\n    function issueDocument(\r\n        string memory url,\r\n        string memory hasha,\r\n        uint256 oid,\r\n        uint256 userId,\r\n        string memory orgsecret\r\n    ) public {\r\n        Document memory newDoc = Document(url, oid, userId, hasha);\r\n        issuedDocuments.push(newDoc);\r\n    }\r\n\r\n    function deleteDocument(uint256 index) public {\r\n        issuedDocuments[index] = Document(\"null\", 200, 200, \"null\");\r\n    }\r\n\r\n    //User related functions\r\n    // uint is the user id, DocumentList is the list of documents he has signed\r\n    DocumentList[] signedAgreement;\r\n\r\n    function createUser(string memory name, string memory secret) public {\r\n        User memory newUser = User(name, secret);\r\n        users.push(newUser);\r\n    }\r\n\r\n    function getOrganization() public view returns (uint256) {\r\n        return organizations.length;\r\n    }\r\n\r\n    function getUser() public view returns (uint256) {\r\n        return users.length;\r\n    }\r\n\r\n    function getIssueDocument() public view returns (uint256) {\r\n        return issuedDocuments.length;\r\n    }\r\n\r\n    //document must already be issued before someone signs it\r\n    function signDocument(\r\n        uint256 userIndex1,\r\n        uint256 userIndex2,\r\n        string memory hasha\r\n    ) public {\r\n        Sgnd memory newDoc = Sgnd(hasha, userIndex1, userIndex2);\r\n        signedDocuments.push(newDoc);\r\n    }\r\n\r\n    function checkSign1(string memory hasha) public view returns (uint256) {\r\n        for (uint256 i = 0; i < signedDocuments.length; i++) {\r\n            if (\r\n                keccak256(bytes(signedDocuments[i].hasha)) ==\r\n                keccak256(bytes(hasha))\r\n            ) {\r\n                return signedDocuments[i].user1;\r\n            }\r\n        }\r\n    }\r\n\r\n    function checkSign2(string memory hasha) public view returns (uint256) {\r\n        for (uint256 i = 0; i < signedDocuments.length; i++) {\r\n            if (\r\n                keccak256(bytes(signedDocuments[i].hasha)) ==\r\n                keccak256(bytes(hasha))\r\n            ) {\r\n                return signedDocuments[i].user2;\r\n            }\r\n        }\r\n    }\r\n\r\n    //General functions\r\n\r\n    function verifyDocument(\r\n        uint256 oid,\r\n        uint256 userId,\r\n        uint256 docIndex\r\n    ) public returns (bool) {\r\n        if (\r\n            (issuedDocuments[docIndex].userId != userId) ||\r\n            (issuedDocuments[docIndex].oid != oid)\r\n        ) {\r\n            return false;\r\n        }\r\n        return true;\r\n    }\r\n}\r\n",
  "sourcePath": "F:\\DecDocs-blockchain\\contracts\\OrganizationList.sol",
  "compiler": {
    "name": "solc",
    "version": "0.5.16+commit.9c3226ce.Emscripten.clang"
  },
  "schemaVersion": "3.1.0",
  "updatedAt": "2020-11-30T12:19:39.226Z",
  "networkType": "ethereum",
  "devdoc": {
    "methods": {}
  },
  "userdoc": {
    "methods": {}
  }
}