{
  "contractName": "OrganizationList",
  "abi": [
    {
      "constant": true,
      "inputs": [
        {
          "internalType": "uint256",
          "name": "",
          "type": "uint256"
        }
      ],
      "name": "issuedDocuments",
      "outputs": [
        {
          "internalType": "string",
          "name": "url",
          "type": "string"
        },
        {
          "internalType": "uint256",
          "name": "oid",
          "type": "uint256"
        },
        {
          "internalType": "uint256",
          "name": "userId",
          "type": "uint256"
        },
        {
          "internalType": "string",
          "name": "hasha",
          "type": "string"
        }
      ],
      "payable": false,
      "stateMutability": "view",
      "type": "function"
    },
    {
      "constant": true,
      "inputs": [
        {
          "internalType": "uint256",
          "name": "",
          "type": "uint256"
        }
      ],
      "name": "organizations",
      "outputs": [
        {
          "internalType": "string",
          "name": "name",
          "type": "string"
        },
        {
          "internalType": "string",
          "name": "secret",
          "type": "string"
        }
      ],
      "payable": false,
      "stateMutability": "view",
      "type": "function"
    },
    {
      "constant": true,
      "inputs": [
        {
          "internalType": "uint256",
          "name": "",
          "type": "uint256"
        }
      ],
      "name": "users",
      "outputs": [
        {
          "internalType": "string",
          "name": "name",
          "type": "string"
        },
        {
          "internalType": "string",
          "name": "secret",
          "type": "string"
        }
      ],
      "payable": false,
      "stateMutability": "view",
      "type": "function"
    },
    {
      "constant": false,
      "inputs": [
        {
          "internalType": "string",
          "name": "name",
          "type": "string"
        },
        {
          "internalType": "string",
          "name": "secret",
          "type": "string"
        }
      ],
      "name": "createOrganization",
      "outputs": [],
      "payable": false,
      "stateMutability": "nonpayable",
      "type": "function"
    },
    {
      "constant": false,
      "inputs": [
        {
          "internalType": "string",
          "name": "url",
          "type": "string"
        },
        {
          "internalType": "string",
          "name": "hasha",
          "type": "string"
        },
        {
          "internalType": "uint256",
          "name": "oid",
          "type": "uint256"
        },
        {
          "internalType": "uint256",
          "name": "userId",
          "type": "uint256"
        },
        {
          "internalType": "string",
          "name": "orgsecret",
          "type": "string"
        }
      ],
      "name": "issueDocument",
      "outputs": [],
      "payable": false,
      "stateMutability": "nonpayable",
      "type": "function"
    },
    {
      "constant": false,
      "inputs": [
        {
          "internalType": "uint256",
          "name": "index",
          "type": "uint256"
        }
      ],
      "name": "deleteDocument",
      "outputs": [],
      "payable": false,
      "stateMutability": "nonpayable",
      "type": "function"
    },
    {
      "constant": false,
      "inputs": [
        {
          "internalType": "string",
          "name": "name",
          "type": "string"
        },
        {
          "internalType": "string",
          "name": "secret",
          "type": "string"
        }
      ],
      "name": "createUser",
      "outputs": [],
      "payable": false,
      "stateMutability": "nonpayable",
      "type": "function"
    },
    {
      "constant": true,
      "inputs": [],
      "name": "getOrganization",
      "outputs": [
        {
          "internalType": "uint256",
          "name": "",
          "type": "uint256"
        }
      ],
      "payable": false,
      "stateMutability": "view",
      "type": "function"
    },
    {
      "constant": true,
      "inputs": [],
      "name": "getUser",
      "outputs": [
        {
          "internalType": "uint256",
          "name": "",
          "type": "uint256"
        }
      ],
      "payable": false,
      "stateMutability": "view",
      "type": "function"
    },
    {
      "constant": true,
      "inputs": [],
      "name": "getIssueDocument",
      "outputs": [
        {
          "internalType": "uint256",
          "name": "",
          "type": "uint256"
        }
      ],
      "payable": false,
      "stateMutability": "view",
      "type": "function"
    },
    {
      "constant": false,
      "inputs": [
        {
          "internalType": "string",
          "name": "userId",
          "type": "string"
        },
        {
          "internalType": "uint256",
          "name": "docIndex",
          "type": "uint256"
        }
      ],
      "name": "signDocument",
      "outputs": [],
      "payable": false,
      "stateMutability": "nonpayable",
      "type": "function"
    },
    {
      "constant": false,
      "inputs": [
        {
          "internalType": "string",
          "name": "url",
          "type": "string"
        },
        {
          "internalType": "uint256",
          "name": "oid",
          "type": "uint256"
        },
        {
          "internalType": "uint256",
          "name": "userId",
          "type": "uint256"
        },
        {
          "internalType": "uint256",
          "name": "docIndex",
          "type": "uint256"
        },
        {
          "internalType": "string",
          "name": "_hash",
          "type": "string"
        }
      ],
      "name": "verifyDocument",
      "outputs": [
        {
          "internalType": "bool",
          "name": "",
          "type": "bool"
        }
      ],
      "payable": false,
      "stateMutability": "nonpayable",
      "type": "function"
    }
  ],
  "bytecode": "0x608060405234801561001057600080fd5b50611729806100206000396000f3fe608060405234801561001057600080fd5b50600436106100b45760003560e01c8063a411ef2011610071578063a411ef201461044d578063abb8e2131461059f578063c8370a80146105bd578063d8660eb2146106de578063e15c6f18146108db578063e792dd8a14610a63576100b4565b8063046c39d2146100b9578063365b98b21461017e578063832880e71461029157806387b162b5146102af5780638cb6c88d14610401578063a0fb14971461041f575b600080fd5b61017c600480360360408110156100cf57600080fd5b81019080803590602001906401000000008111156100ec57600080fd5b8201836020820111156100fe57600080fd5b8035906020019184600183028401116401000000008311171561012057600080fd5b91908080601f016020809104026020016040519081016040528093929190818152602001838380828437600081840152601f19601f82011690508083019250505050505050919291929080359060200190929190505050610b76565b005b6101aa6004803603602081101561019457600080fd5b8101908080359060200190929190505050610cb4565b604051808060200180602001838103835285818151815260200191508051906020019080838360005b838110156101ee5780820151818401526020810190506101d3565b50505050905090810190601f16801561021b5780820380516001836020036101000a031916815260200191505b50838103825284818151815260200191508051906020019080838360005b83811015610254578082015181840152602081019050610239565b50505050905090810190601f1680156102815780820380516001836020036101000a031916815260200191505b5094505050505060405180910390f35b610299610e15565b6040518082815260200191505060405180910390f35b6103ff600480360360408110156102c557600080fd5b81019080803590602001906401000000008111156102e257600080fd5b8201836020820111156102f457600080fd5b8035906020019184600183028401116401000000008311171561031657600080fd5b91908080601f016020809104026020016040519081016040528093929190818152602001838380828437600081840152601f19601f8201169050808301925050505050505091929192908035906020019064010000000081111561037957600080fd5b82018360208201111561038b57600080fd5b803590602001918460018302840111640100000000831117156103ad57600080fd5b91908080601f016020809104026020016040519081016040528093929190818152602001838380828437600081840152601f19601f820116905080830192505050505050509192919290505050610e22565b005b610409610eb1565b6040518082815260200191505060405180910390f35b61044b6004803603602081101561043557600080fd5b8101908080359060200190929190505050610ebd565b005b61059d6004803603604081101561046357600080fd5b810190808035906020019064010000000081111561048057600080fd5b82018360208201111561049257600080fd5b803590602001918460018302840111640100000000831117156104b457600080fd5b91908080601f016020809104026020016040519081016040528093929190818152602001838380828437600081840152601f19601f8201169050808301925050505050505091929192908035906020019064010000000081111561051757600080fd5b82018360208201111561052957600080fd5b8035906020019184600183028401116401000000008311171561054b57600080fd5b91908080601f016020809104026020016040519081016040528093929190818152602001838380828437600081840152601f19601f820116905080830192505050505050509192919290505050610fb9565b005b6105a7611048565b6040518082815260200191505060405180910390f35b6105e9600480360360208110156105d357600080fd5b8101908080359060200190929190505050611055565b604051808060200185815260200184815260200180602001838103835287818151815260200191508051906020019080838360005b8381101561063957808201518184015260208101905061061e565b50505050905090810190601f1680156106665780820380516001836020036101000a031916815260200191505b50838103825284818151815260200191508051906020019080838360005b8381101561069f578082015181840152602081019050610684565b50505050905090810190601f1680156106cc5780820380516001836020036101000a031916815260200191505b50965050505050505060405180910390f35b6108d9600480360360a08110156106f457600080fd5b810190808035906020019064010000000081111561071157600080fd5b82018360208201111561072357600080fd5b8035906020019184600183028401116401000000008311171561074557600080fd5b91908080601f016020809104026020016040519081016040528093929190818152602001838380828437600081840152601f19601f820116905080830192505050505050509192919290803590602001906401000000008111156107a857600080fd5b8201836020820111156107ba57600080fd5b803590602001918460018302840111640100000000831117156107dc57600080fd5b91908080601f016020809104026020016040519081016040528093929190818152602001838380828437600081840152601f19601f82011690508083019250505050505050919291929080359060200190929190803590602001909291908035906020019064010000000081111561085357600080fd5b82018360208201111561086557600080fd5b8035906020019184600183028401116401000000008311171561088757600080fd5b91908080601f016020809104026020016040519081016040528093929190818152602001838380828437600081840152601f19601f8201169050808301925050505050505091929192905050506111c2565b005b610a49600480360360a08110156108f157600080fd5b810190808035906020019064010000000081111561090e57600080fd5b82018360208201111561092057600080fd5b8035906020019184600183028401116401000000008311171561094257600080fd5b91908080601f016020809104026020016040519081016040528093929190818152602001838380828437600081840152601f19601f820116905080830192505050505050509192919290803590602001909291908035906020019092919080359060200190929190803590602001906401000000008111156109c357600080fd5b8201836020820111156109d557600080fd5b803590602001918460018302840111640100000000831117156109f757600080fd5b91908080601f016020809104026020016040519081016040528093929190818152602001838380828437600081840152601f19601f820116905080830192505050505050509192919290505050611274565b604051808215151515815260200191505060405180910390f35b610a8f60048036036020811015610a7957600080fd5b810190808035906020019092919050505061140b565b604051808060200180602001838103835285818151815260200191508051906020019080838360005b83811015610ad3578082015181840152602081019050610ab8565b50505050905090810190601f168015610b005780820380516001836020036101000a031916815260200191505b50838103825284818151815260200191508051906020019080838360005b83811015610b39578082015181840152602081019050610b1e565b50505050905090810190601f168015610b665780820380516001836020036101000a031916815260200191505b5094505050505060405180910390f35b60006004836040518082805190602001908083835b60208310610bae5780518252602082019150602081019050602083039250610b8b565b6001836020036101000a038019825116818451168082178552505050505050905001915050908152602001604051809103902054905060068181548110610bf157fe5b906000526020600020906002020160010160008381548110610c0f57fe5b90600052602060002090600402019080600181540180825580915050906001820390600052602060002090600402016000909192909190915060008201816000019080546001816001161561010002031660029004610c6f92919061156c565b50600182015481600101556002820154816002015560038201816003019080546001816001161561010002031660029004610cab92919061156c565b50505050505050565b60028181548110610cc157fe5b9060005260206000209060020201600091509050806000018054600181600116156101000203166002900480601f016020809104026020016040519081016040528092919081815260200182805460018160011615610100020316600290048015610d6d5780601f10610d4257610100808354040283529160200191610d6d565b820191906000526020600020905b815481529060010190602001808311610d5057829003601f168201915b505050505090806001018054600181600116156101000203166002900480601f016020809104026020016040519081016040528092919081815260200182805460018160011615610100020316600290048015610e0b5780601f10610de057610100808354040283529160200191610e0b565b820191906000526020600020905b815481529060010190602001808311610dee57829003601f168201915b5050505050905082565b6000600280549050905090565b610e2a6115f3565b6040518060400160405280848152602001838152509050600281908060018154018082558091505090600182039060005260206000209060020201600090919290919091506000820151816000019080519060200190610e8b92919061160d565b506020820151816001019080519060200190610ea892919061160d565b50505050505050565b60008080549050905090565b60405180608001604052806040518060400160405280600481526020017f6e756c6c00000000000000000000000000000000000000000000000000000000815250815260200160c8815260200160c881526020016040518060400160405280600481526020017f6e756c6c0000000000000000000000000000000000000000000000000000000081525081525060008281548110610f5757fe5b90600052602060002090600402016000820151816000019080519060200190610f8192919061160d565b5060208201518160010155604082015181600201556060820151816003019080519060200190610fb292919061160d565b5090505050565b610fc161168d565b604051806040016040528084815260200183815250905060018190806001815401808255809150509060018203906000526020600020906002020160009091929091909150600082015181600001908051906020019061102292919061160d565b50602082015181600101908051906020019061103f92919061160d565b50505050505050565b6000600180549050905090565b6000818154811061106257fe5b9060005260206000209060040201600091509050806000018054600181600116156101000203166002900480601f01602080910402602001604051908101604052809291908181526020018280546001816001161561010002031660029004801561110e5780601f106110e35761010080835404028352916020019161110e565b820191906000526020600020905b8154815290600101906020018083116110f157829003601f168201915b505050505090806001015490806002015490806003018054600181600116156101000203166002900480601f0160208091040260200160405190810160405280929190818152602001828054600181600116156101000203166002900480156111b85780601f1061118d576101008083540402835291602001916111b8565b820191906000526020600020905b81548152906001019060200180831161119b57829003601f168201915b5050505050905084565b6111ca6116a7565b604051806080016040528087815260200185815260200184815260200186815250905060008190806001815401808255809150509060018203906000526020600020906004020160009091929091909150600082015181600001908051906020019061123792919061160d565b506020820151816001015560408201518160020155606082015181600301908051906020019061126892919061160d565b50505050505050505050565b600081805190602001206000848154811061128b57fe5b906000526020600020906004020160030160405180828054600181600116156101000203166002900480156112f75780601f106112d55761010080835404028352918201916112f7565b820191906000526020600020905b8154815290600101906020018083116112e3575b5050915050604051809103902014158061139d575085805190602001206000848154811061132157fe5b9060005260206000209060040201600001604051808280546001816001161561010002031660029004801561138d5780601f1061136b57610100808354040283529182019161138d565b820191906000526020600020905b815481529060010190602001808311611379575b5050915050604051809103902014155b806113c6575083600084815481106113b157fe5b90600052602060002090600402016002015414155b806113ef575084600084815481106113da57fe5b90600052602060002090600402016001015414155b156113fd5760009050611402565b600190505b95945050505050565b6001818154811061141857fe5b9060005260206000209060020201600091509050806000018054600181600116156101000203166002900480601f0160208091040260200160405190810160405280929190818152602001828054600181600116156101000203166002900480156114c45780601f10611499576101008083540402835291602001916114c4565b820191906000526020600020905b8154815290600101906020018083116114a757829003601f168201915b505050505090806001018054600181600116156101000203166002900480601f0160208091040260200160405190810160405280929190818152602001828054600181600116156101000203166002900480156115625780601f1061153757610100808354040283529160200191611562565b820191906000526020600020905b81548152906001019060200180831161154557829003601f168201915b5050505050905082565b828054600181600116156101000203166002900490600052602060002090601f016020900481019282601f106115a557805485556115e2565b828001600101855582156115e257600052602060002091601f016020900482015b828111156115e15782548255916001019190600101906115c6565b5b5090506115ef91906116cf565b5090565b604051806040016040528060608152602001606081525090565b828054600181600116156101000203166002900490600052602060002090601f016020900481019282601f1061164e57805160ff191683800117855561167c565b8280016001018555821561167c579182015b8281111561167b578251825591602001919060010190611660565b5b50905061168991906116cf565b5090565b604051806040016040528060608152602001606081525090565b6040518060800160405280606081526020016000815260200160008152602001606081525090565b6116f191905b808211156116ed5760008160009055506001016116d5565b5090565b9056fea265627a7a72315820f3da57bbd94541b7c6d1e1ba721de04cbec1c2c222509cc1e6e60cf9f76fab0e64736f6c63430005100032",
  "source": "pragma solidity >=0.4.0 <0.7.0;\n\ncontract OrganizationList {\n    //user user signed relations are here\n    struct DocumentList {\n        uint256 userid;\n        Document[] signedDocs;\n    }\n    struct Document {\n        string url;\n        uint256 oid;\n        uint256 userId;\n        string hasha;\n    }\n    struct Organization {\n        string name;\n        string secret;\n    }\n    struct User {\n        string name;\n        string secret;\n    }\n\n    //containers\n    Document[] public issuedDocuments;\n    Organization[] public organizations;\n    User[] public users;\n\n    //Other useful maps\n    // to return corresponding index of a unique string in the array of organizations\n    mapping(string => uint256) corresOrg;\n    mapping(string => uint256) corresUser;\n    mapping(string => uint256) corresDocument;\n\n    //class methods\n\n    function createOrganization(string memory name, string memory secret)\n        public\n    {\n        Organization memory newOrg = Organization(name, secret);\n        organizations.push(newOrg);\n    }\n\n    //Organization related functions\n    function issueDocument(\n        string memory url,\n        string memory hasha,\n        uint256 oid,\n        uint256 userId,\n        string memory orgsecret\n    ) public  {\n        Document memory newDoc = Document(url, oid, userId, hasha);\n        issuedDocuments.push(newDoc);\n    }\n\n    function deleteDocument(uint256 index) public {\n        issuedDocuments[index] = Document(\"null\", 200, 200, \"null\");\n    }\n\n    //User related functions\n    // uint is the user id, DocumentList is the list of documents he has signed\n    DocumentList[] signedAgreement;\n\n    function createUser(\n        string memory name,\n        string memory secret\n    ) public {\n         User memory newUser = User(name, secret);\n         users.push(newUser);\n    }\n    function getOrganization() public view returns (uint256) {\n        return organizations.length;\n    }\n    function getUser() public view returns (uint256) {\n        return users.length;\n    }\n    function getIssueDocument() public view returns (uint256)\n    {\n        return issuedDocuments.length;\n    }\n\n    //document must already be issued before someone signs it\n    function signDocument(string memory userId, uint256 docIndex) public {\n        uint256 userIndex = corresUser[userId];\n        signedAgreement[userIndex].signedDocs.push(issuedDocuments[docIndex]);\n    }\n\n    //General functions\n\n    function verifyDocument(\n        string memory url,\n        uint256 oid,\n        uint256 userId,\n        uint256 docIndex,\n        string memory _hash\n    ) public returns (bool) {\n        if (\n            keccak256(bytes(issuedDocuments[docIndex].hasha)) !=\n            keccak256(bytes(_hash)) ||\n            keccak256(bytes(issuedDocuments[docIndex].url)) !=\n            keccak256(bytes(url)) ||\n            (issuedDocuments[docIndex].userId != userId) ||\n            (issuedDocuments[docIndex].oid != oid)\n        ) {\n            return false;\n        }\n        return true;\n    }\n}\n",
  "sourcePath": "/home/shivam/Desktop/DecDocs-blockchain/contracts/OrganizationList.sol",
  "compiler": {
    "name": "solc",
    "version": "0.5.16+commit.9c3226ce.Emscripten.clang"
  },
  "schemaVersion": "3.2.3",
  "updatedAt": "2020-07-28T18:00:21.884Z",
  "networkType": "ethereum",
  "devdoc": {
    "methods": {}
  },
  "userdoc": {
    "methods": {}
  }
}