{
    "contractName": "OrganizationList",
    "abi": [
        {
            "constant": true,
            "inputs": [
                {
                    "internalType": "uint256",
                    "name": "",
                    "type": "uint256"
                }
            ],
            "name": "issuedDocuments",
            "outputs": [
                {
                    "internalType": "string",
                    "name": "url",
                    "type": "string"
                },
                {
                    "internalType": "string",
                    "name": "oid",
                    "type": "string"
                },
                {
                    "internalType": "string",
                    "name": "userId",
                    "type": "string"
                },
                {
                    "internalType": "string",
                    "name": "hasha",
                    "type": "string"
                }
            ],
            "payable": false,
            "stateMutability": "view",
            "type": "function"
        },
        {
            "constant": true,
            "inputs": [
                {
                    "internalType": "uint256",
                    "name": "",
                    "type": "uint256"
                }
            ],
            "name": "organizations",
            "outputs": [
                {
                    "internalType": "string",
                    "name": "id",
                    "type": "string"
                },
                {
                    "internalType": "string",
                    "name": "name",
                    "type": "string"
                },
                {
                    "internalType": "string",
                    "name": "secret",
                    "type": "string"
                }
            ],
            "payable": false,
            "stateMutability": "view",
            "type": "function"
        },
        {
            "constant": true,
            "inputs": [
                {
                    "internalType": "uint256",
                    "name": "",
                    "type": "uint256"
                }
            ],
            "name": "users",
            "outputs": [
                {
                    "internalType": "string",
                    "name": "id",
                    "type": "string"
                },
                {
                    "internalType": "string",
                    "name": "name",
                    "type": "string"
                },
                {
                    "internalType": "string",
                    "name": "secret",
                    "type": "string"
                }
            ],
            "payable": false,
            "stateMutability": "view",
            "type": "function"
        },
        {
            "constant": false,
            "inputs": [
                {
                    "internalType": "string",
                    "name": "name",
                    "type": "string"
                },
                {
                    "internalType": "string",
                    "name": "id",
                    "type": "string"
                },
                {
                    "internalType": "string",
                    "name": "secret",
                    "type": "string"
                }
            ],
            "name": "createOrganization",
            "outputs": [],
            "payable": false,
            "stateMutability": "nonpayable",
            "type": "function"
        },
        {
            "constant": false,
            "inputs": [
                {
                    "internalType": "string",
                    "name": "url",
                    "type": "string"
                },
                {
                    "internalType": "string",
                    "name": "hasha",
                    "type": "string"
                },
                {
                    "internalType": "string",
                    "name": "oid",
                    "type": "string"
                },
                {
                    "internalType": "string",
                    "name": "userId",
                    "type": "string"
                },
                {
                    "internalType": "string",
                    "name": "orgsecret",
                    "type": "string"
                }
            ],
            "name": "issueDocument",
            "outputs": [
                {
                    "internalType": "uint256",
                    "name": "",
                    "type": "uint256"
                }
            ],
            "payable": false,
            "stateMutability": "nonpayable",
            "type": "function"
        },
        {
            "constant": false,
            "inputs": [
                {
                    "internalType": "uint256",
                    "name": "index",
                    "type": "uint256"
                }
            ],
            "name": "deleteDocument",
            "outputs": [],
            "payable": false,
            "stateMutability": "nonpayable",
            "type": "function"
        },
        {
            "constant": false,
            "inputs": [
                {
                    "internalType": "string",
                    "name": "name",
                    "type": "string"
                },
                {
                    "internalType": "string",
                    "name": "id",
                    "type": "string"
                },
                {
                    "internalType": "string",
                    "name": "secret",
                    "type": "string"
                }
            ],
            "name": "createUser",
            "outputs": [],
            "payable": false,
            "stateMutability": "nonpayable",
            "type": "function"
        },
        {
            "constant": false,
            "inputs": [
                {
                    "internalType": "string",
                    "name": "userId",
                    "type": "string"
                },
                {
                    "internalType": "uint256",
                    "name": "docIndex",
                    "type": "uint256"
                }
            ],
            "name": "signDocument",
            "outputs": [],
            "payable": false,
            "stateMutability": "nonpayable",
            "type": "function"
        },
        {
            "constant": false,
            "inputs": [
                {
                    "internalType": "string",
                    "name": "url",
                    "type": "string"
                },
                {
                    "internalType": "string",
                    "name": "oid",
                    "type": "string"
                },
                {
                    "internalType": "string",
                    "name": "userId",
                    "type": "string"
                },
                {
                    "internalType": "uint256",
                    "name": "docIndex",
                    "type": "uint256"
                },
                {
                    "internalType": "string",
                    "name": "_hash",
                    "type": "string"
                }
            ],
            "name": "verifyDocument",
            "outputs": [
                {
                    "internalType": "bool",
                    "name": "",
                    "type": "bool"
                }
            ],
            "payable": false,
            "stateMutability": "nonpayable",
            "type": "function"
        }
    ],
    "bytecode": "0x608060405234801561001057600080fd5b50611e61806100206000396000f3fe608060405234801561001057600080fd5b50600436106100935760003560e01c8063a0fb149711610066578063a0fb1497146106ae578063b5e6b494146106dc578063c8370a801461097e578063e792dd8a14610b69578063f9a00ba414610ce857610093565b8063046c39d21461009857806323247b561461015d578063365b98b21461034657806359ae069b146104c5575b600080fd5b61015b600480360360408110156100ae57600080fd5b81019080803590602001906401000000008111156100cb57600080fd5b8201836020820111156100dd57600080fd5b803590602001918460018302840111640100000000831117156100ff57600080fd5b91908080601f016020809104026020016040519081016040528093929190818152602001838380828437600081840152601f19601f82011690508083019250505050505050919291929080359060200190929190505050611013565b005b6103446004803603606081101561017357600080fd5b810190808035906020019064010000000081111561019057600080fd5b8201836020820111156101a257600080fd5b803590602001918460018302840111640100000000831117156101c457600080fd5b91908080601f016020809104026020016040519081016040528093929190818152602001838380828437600081840152601f19601f8201169050808301925050505050505091929192908035906020019064010000000081111561022757600080fd5b82018360208201111561023957600080fd5b8035906020019184600183028401116401000000008311171561025b57600080fd5b91908080601f016020809104026020016040519081016040528093929190818152602001838380828437600081840152601f19601f820116905080830192505050505050509192919290803590602001906401000000008111156102be57600080fd5b8201836020820111156102d057600080fd5b803590602001918460018302840111640100000000831117156102f257600080fd5b91908080601f016020809104026020016040519081016040528093929190818152602001838380828437600081840152601f19601f820116905080830192505050505050509192919290505050611017565b005b6103726004803603602081101561035c57600080fd5b81019080803590602001909291905050506110ca565b60405180806020018060200180602001848103845287818151815260200191508051906020019080838360005b838110156103ba57808201518184015260208101905061039f565b50505050905090810190601f1680156103e75780820380516001836020036101000a031916815260200191505b50848103835286818151815260200191508051906020019080838360005b83811015610420578082015181840152602081019050610405565b50505050905090810190601f16801561044d5780820380516001836020036101000a031916815260200191505b50848103825285818151815260200191508051906020019080838360005b8381101561048657808201518184015260208101905061046b565b50505050905090810190601f1680156104b35780820380516001836020036101000a031916815260200191505b50965050505050505060405180910390f35b6106ac600480360360608110156104db57600080fd5b81019080803590602001906401000000008111156104f857600080fd5b82018360208201111561050a57600080fd5b8035906020019184600183028401116401000000008311171561052c57600080fd5b91908080601f016020809104026020016040519081016040528093929190818152602001838380828437600081840152601f19601f8201169050808301925050505050505091929192908035906020019064010000000081111561058f57600080fd5b8201836020820111156105a157600080fd5b803590602001918460018302840111640100000000831117156105c357600080fd5b91908080601f016020809104026020016040519081016040528093929190818152602001838380828437600081840152601f19601f8201169050808301925050505050505091929192908035906020019064010000000081111561062657600080fd5b82018360208201111561063857600080fd5b8035906020019184600183028401116401000000008311171561065a57600080fd5b91908080601f016020809104026020016040519081016040528093929190818152602001838380828437600081840152601f19601f8201169050808301925050505050505091929192905050506112c9565b005b6106da600480360360208110156106c457600080fd5b810190808035906020019092919050505061137c565b005b610964600480360360a08110156106f257600080fd5b810190808035906020019064010000000081111561070f57600080fd5b82018360208201111561072157600080fd5b8035906020019184600183028401116401000000008311171561074357600080fd5b91908080601f016020809104026020016040519081016040528093929190818152602001838380828437600081840152601f19601f820116905080830192505050505050509192919290803590602001906401000000008111156107a657600080fd5b8201836020820111156107b857600080fd5b803590602001918460018302840111640100000000831117156107da57600080fd5b91908080601f016020809104026020016040519081016040528093929190818152602001838380828437600081840152601f19601f8201169050808301925050505050505091929192908035906020019064010000000081111561083d57600080fd5b82018360208201111561084f57600080fd5b8035906020019184600183028401116401000000008311171561087157600080fd5b91908080601f016020809104026020016040519081016040528093929190818152602001838380828437600081840152601f19601f82011690508083019250505050505050919291929080359060200190929190803590602001906401000000008111156108de57600080fd5b8201836020820111156108f057600080fd5b8035906020019184600183028401116401000000008311171561091257600080fd5b91908080601f016020809104026020016040519081016040528093929190818152602001838380828437600081840152601f19601f820116905080830192505050505050509192919290505050611506565b604051808215151515815260200191505060405180910390f35b6109aa6004803603602081101561099457600080fd5b8101908080359060200190929190505050611779565b6040518080602001806020018060200180602001858103855289818151815260200191508051906020019080838360005b838110156109f65780820151818401526020810190506109db565b50505050905090810190601f168015610a235780820380516001836020036101000a031916815260200191505b50858103845288818151815260200191508051906020019080838360005b83811015610a5c578082015181840152602081019050610a41565b50505050905090810190601f168015610a895780820380516001836020036101000a031916815260200191505b50858103835287818151815260200191508051906020019080838360005b83811015610ac2578082015181840152602081019050610aa7565b50505050905090810190601f168015610aef5780820380516001836020036101000a031916815260200191505b50858103825286818151815260200191508051906020019080838360005b83811015610b28578082015181840152602081019050610b0d565b50505050905090810190601f168015610b555780820380516001836020036101000a031916815260200191505b509850505050505050505060405180910390f35b610b9560048036036020811015610b7f57600080fd5b8101908080359060200190929190505050611a16565b60405180806020018060200180602001848103845287818151815260200191508051906020019080838360005b83811015610bdd578082015181840152602081019050610bc2565b50505050905090810190601f168015610c0a5780820380516001836020036101000a031916815260200191505b50848103835286818151815260200191508051906020019080838360005b83811015610c43578082015181840152602081019050610c28565b50505050905090810190601f168015610c705780820380516001836020036101000a031916815260200191505b50848103825285818151815260200191508051906020019080838360005b83811015610ca9578082015181840152602081019050610c8e565b50505050905090810190601f168015610cd65780820380516001836020036101000a031916815260200191505b50965050505050505060405180910390f35b610ffd600480360360a0811015610cfe57600080fd5b8101908080359060200190640100000000811115610d1b57600080fd5b820183602082011115610d2d57600080fd5b80359060200191846001830284011164010000000083111715610d4f57600080fd5b91908080601f016020809104026020016040519081016040528093929190818152602001838380828437600081840152601f19601f82011690508083019250505050505050919291929080359060200190640100000000811115610db257600080fd5b820183602082011115610dc457600080fd5b80359060200191846001830284011164010000000083111715610de657600080fd5b91908080601f016020809104026020016040519081016040528093929190818152602001838380828437600081840152601f19601f82011690508083019250505050505050919291929080359060200190640100000000811115610e4957600080fd5b820183602082011115610e5b57600080fd5b80359060200191846001830284011164010000000083111715610e7d57600080fd5b91908080601f016020809104026020016040519081016040528093929190818152602001838380828437600081840152601f19601f82011690508083019250505050505050919291929080359060200190640100000000811115610ee057600080fd5b820183602082011115610ef257600080fd5b80359060200191846001830284011164010000000083111715610f1457600080fd5b91908080601f016020809104026020016040519081016040528093929190818152602001838380828437600081840152601f19601f82011690508083019250505050505050919291929080359060200190640100000000811115610f7757600080fd5b820183602082011115610f8957600080fd5b80359060200191846001830284011164010000000083111715610fab57600080fd5b91908080601f016020809104026020016040519081016040528093929190818152602001838380828437600081840152601f19601f820116905080830192505050505050509192919290505050611c15565b6040518082815260200191505060405180910390f35b5050565b61101f611d1d565b6040518060600160405280858152602001848152602001838152509050600181908060018154018082558091505090600182039060005260206000209060030201600090919290919091506000820151816000019080519060200190611086929190611d3e565b5060208201518160010190805190602001906110a3929190611d3e565b5060408201518160020190805190602001906110c0929190611d3e565b5050505050505050565b600281815481106110d757fe5b9060005260206000209060030201600091509050806000018054600181600116156101000203166002900480601f0160208091040260200160405190810160405280929190818152602001828054600181600116156101000203166002900480156111835780601f1061115857610100808354040283529160200191611183565b820191906000526020600020905b81548152906001019060200180831161116657829003601f168201915b505050505090806001018054600181600116156101000203166002900480601f0160208091040260200160405190810160405280929190818152602001828054600181600116156101000203166002900480156112215780601f106111f657610100808354040283529160200191611221565b820191906000526020600020905b81548152906001019060200180831161120457829003601f168201915b505050505090806002018054600181600116156101000203166002900480601f0160208091040260200160405190810160405280929190818152602001828054600181600116156101000203166002900480156112bf5780601f10611294576101008083540402835291602001916112bf565b820191906000526020600020905b8154815290600101906020018083116112a257829003601f168201915b5050505050905083565b6112d1611dbe565b6040518060600160405280858152602001848152602001838152509050600281908060018154018082558091505090600182039060005260206000209060030201600090919290919091506000820151816000019080519060200190611338929190611d3e565b506020820151816001019080519060200190611355929190611d3e565b506040820151816002019080519060200190611372929190611d3e565b5050505050505050565b60405180608001604052806040518060400160405280600481526020017f6e756c6c0000000000000000000000000000000000000000000000000000000081525081526020016040518060400160405280600481526020017f6e756c6c0000000000000000000000000000000000000000000000000000000081525081526020016040518060400160405280600481526020017f6e756c6c0000000000000000000000000000000000000000000000000000000081525081526020016040518060400160405280600481526020017f6e756c6c000000000000000000000000000000000000000000000000000000008152508152506000828154811061147e57fe5b906000526020600020906004020160008201518160000190805190602001906114a8929190611d3e565b5060208201518160010190805190602001906114c5929190611d3e565b5060408201518160020190805190602001906114e2929190611d3e565b5060608201518160030190805190602001906114ff929190611d3e565b5090505050565b600081805190602001206000848154811061151d57fe5b906000526020600020906004020160030160405180828054600181600116156101000203166002900480156115895780601f10611567576101008083540402835291820191611589565b820191906000526020600020905b815481529060010190602001808311611575575b5050915050604051809103902014158061162f57508580519060200120600084815481106115b357fe5b9060005260206000209060040201600001604051808280546001816001161561010002031660029004801561161f5780601f106115fd57610100808354040283529182019161161f565b820191906000526020600020905b81548152906001019060200180831161160b575b5050915050604051809103902014155b806116c6575083805190602001206000848154811061164a57fe5b906000526020600020906004020160020160405180828054600181600116156101000203166002900480156116b65780601f106116945761010080835404028352918201916116b6565b820191906000526020600020905b8154815290600101906020018083116116a2575b5050915050604051809103902014155b8061175d57508480519060200120600084815481106116e157fe5b9060005260206000209060040201600101604051808280546001816001161561010002031660029004801561174d5780601f1061172b57610100808354040283529182019161174d565b820191906000526020600020905b815481529060010190602001808311611739575b5050915050604051809103902014155b1561176b5760009050611770565b600190505b95945050505050565b6000818154811061178657fe5b9060005260206000209060040201600091509050806000018054600181600116156101000203166002900480601f0160208091040260200160405190810160405280929190818152602001828054600181600116156101000203166002900480156118325780601f1061180757610100808354040283529160200191611832565b820191906000526020600020905b81548152906001019060200180831161181557829003601f168201915b505050505090806001018054600181600116156101000203166002900480601f0160208091040260200160405190810160405280929190818152602001828054600181600116156101000203166002900480156118d05780601f106118a5576101008083540402835291602001916118d0565b820191906000526020600020905b8154815290600101906020018083116118b357829003601f168201915b505050505090806002018054600181600116156101000203166002900480601f01602080910402602001604051908101604052809291908181526020018280546001816001161561010002031660029004801561196e5780601f106119435761010080835404028352916020019161196e565b820191906000526020600020905b81548152906001019060200180831161195157829003601f168201915b505050505090806003018054600181600116156101000203166002900480601f016020809104026020016040519081016040528092919081815260200182805460018160011615610100020316600290048015611a0c5780601f106119e157610100808354040283529160200191611a0c565b820191906000526020600020905b8154815290600101906020018083116119ef57829003601f168201915b5050505050905084565b60018181548110611a2357fe5b9060005260206000209060030201600091509050806000018054600181600116156101000203166002900480601f016020809104026020016040519081016040528092919081815260200182805460018160011615610100020316600290048015611acf5780601f10611aa457610100808354040283529160200191611acf565b820191906000526020600020905b815481529060010190602001808311611ab257829003601f168201915b505050505090806001018054600181600116156101000203166002900480601f016020809104026020016040519081016040528092919081815260200182805460018160011615610100020316600290048015611b6d5780601f10611b4257610100808354040283529160200191611b6d565b820191906000526020600020905b815481529060010190602001808311611b5057829003601f168201915b505050505090806002018054600181600116156101000203166002900480601f016020809104026020016040519081016040528092919081815260200182805460018160011615610100020316600290048015611c0b5780601f10611be057610100808354040283529160200191611c0b565b820191906000526020600020905b815481529060010190602001808311611bee57829003601f168201915b5050505050905083565b60008180519060200120828051906020012014611c355760009050611d14565b611c3d611ddf565b6040518060800160405280888152602001868152602001858152602001878152509050600080805490509050600082908060018154018082558091505090600182039060005260206000209060040201600090919290919091506000820151816000019080519060200190611cb3929190611d3e565b506020820151816001019080519060200190611cd0929190611d3e565b506040820151816002019080519060200190611ced929190611d3e565b506060820151816003019080519060200190611d0a929190611d3e565b5050505080925050505b95945050505050565b60405180606001604052806060815260200160608152602001606081525090565b828054600181600116156101000203166002900490600052602060002090601f016020900481019282601f10611d7f57805160ff1916838001178555611dad565b82800160010185558215611dad579182015b82811115611dac578251825591602001919060010190611d91565b5b509050611dba9190611e07565b5090565b60405180606001604052806060815260200160608152602001606081525090565b6040518060800160405280606081526020016060815260200160608152602001606081525090565b611e2991905b80821115611e25576000816000905550600101611e0d565b5090565b9056fea265627a7a72315820ab4a5a3eb827b35d2d6ef03335476966d0a22ff099e71329c6ead1c37774dab864736f6c63430005100032",
    "source": "pragma solidity >=0.4.0 <0.7.0;\r\n\r\ncontract OrganizationList {\r\n    struct DocumentList {\r\n        uint256 userid;\r\n        Document[] signedDocs;\r\n    }\r\n    struct Document {\r\n        string url;\r\n        string oid;\r\n        string userId;\r\n        string hasha;\r\n    }\r\n    struct Organization {\r\n        string id;\r\n        string name;\r\n        string secret;\r\n    }\r\n    struct User {\r\n        string id;\r\n        string name;\r\n        string secret;\r\n    }\r\n\r\n    //containers\r\n    Document[] public issuedDocuments;\r\n    Organization[] public organizations;\r\n    User[] public users;\r\n\r\n    //Other useful maps\r\n    // to return corresponding index of a unique string in the array of organizations\r\n    mapping(string => uint256) corresOrg;\r\n    mapping(string => uint256) corresUser;\r\n    mapping(string => uint256) corresDocument;\r\n\r\n    //class methods\r\n\r\n    function createOrganization(\r\n        string memory name,\r\n        string memory id,\r\n        string memory secret\r\n    ) public {\r\n        Organization memory newOrg = Organization(name, id, secret);\r\n        organizations.push(newOrg);\r\n    }\r\n\r\n    //Organization related functions\r\n    function issueDocument(\r\n        string memory url,\r\n        string memory hasha,\r\n        string memory oid,\r\n        string memory userId,\r\n        string memory orgsecret\r\n    ) public returns (uint256) {\r\n        if (keccak256(bytes(orgsecret)) != keccak256(bytes(orgsecret))) {\r\n            return 0;\r\n        }\r\n\r\n        Document memory newDoc = Document(url, oid, userId, hasha);\r\n        uint256 l = issuedDocuments.length;\r\n        issuedDocuments.push(newDoc);\r\n        return l;\r\n    }\r\n\r\n    function deleteDocument(uint256 index) public {\r\n        issuedDocuments[index] = Document(\"null\", \"null\", \"null\", \"null\");\r\n    }\r\n\r\n    //User related functions\r\n    // uint is the user id, DocumentList is the list of documents he has signed\r\n    mapping(uint256 => DocumentList) signedAgreement;\r\n\r\n    function createUser(\r\n        string memory name,\r\n        string memory id,\r\n        string memory secret\r\n    ) public {\r\n        User memory newUser = User(name, id, secret);\r\n        users.push(newUser);\r\n    }\r\n\r\n    function signDocument(string memory userId, uint256 docIndex) public {\r\n        // uint256 userIndex = corresUser[userId];\r\n        // signedAgreement[userIndex] = DocumentList(userIndex,issuedDocuments[docIndex]);\r\n    }\r\n\r\n    //General functions\r\n\r\n    function verifyDocument(\r\n        string memory url,\r\n        string memory oid,\r\n        string memory userId,\r\n        uint256 docIndex,\r\n        string memory _hash\r\n    ) public returns (bool) {\r\n        if (\r\n            keccak256(bytes(issuedDocuments[docIndex].hasha)) !=\r\n            keccak256(bytes(_hash)) ||\r\n            keccak256(bytes(issuedDocuments[docIndex].url)) !=\r\n            keccak256(bytes(url)) ||\r\n            keccak256(bytes(issuedDocuments[docIndex].userId)) !=\r\n            keccak256(bytes(userId)) ||\r\n            keccak256(bytes(issuedDocuments[docIndex].oid)) !=\r\n            keccak256(bytes(oid))\r\n        ) {\r\n            return false;\r\n        }\r\n        return true;\r\n    }\r\n}\r\n",
    "sourcePath": "F:\\DecDocs-blockchain\\contracts\\OrganizationList.sol",
    "compiler": {
        "name": "solc",
        "version": "0.5.16+commit.9c3226ce.Emscripten.clang"
    },
    "schemaVersion": "3.1.0",
    "updatedAt": "2020-07-08T19:05:52.687Z",
    "networkType": "ethereum",
    "devdoc": {
        "methods": {}
    },
    "userdoc": {
        "methods": {}
    }
}