{
  "contractName": "OrganizationList",
  "abi": [
    {
      "constant": true,
      "inputs": [
        {
          "internalType": "uint256",
          "name": "",
          "type": "uint256"
        }
      ],
      "name": "issuedDocuments",
      "outputs": [
        {
          "internalType": "string",
          "name": "url",
          "type": "string"
        },
        {
          "internalType": "uint256",
          "name": "oid",
          "type": "uint256"
        },
        {
          "internalType": "uint256",
          "name": "userId",
          "type": "uint256"
        },
        {
          "internalType": "string",
          "name": "hasha",
          "type": "string"
        }
      ],
      "payable": false,
      "stateMutability": "view",
      "type": "function"
    },
    {
      "constant": true,
      "inputs": [
        {
          "internalType": "uint256",
          "name": "",
          "type": "uint256"
        }
      ],
      "name": "organizations",
      "outputs": [
        {
          "internalType": "string",
          "name": "name",
          "type": "string"
        },
        {
          "internalType": "string",
          "name": "secret",
          "type": "string"
        }
      ],
      "payable": false,
      "stateMutability": "view",
      "type": "function"
    },
    {
      "constant": true,
      "inputs": [
        {
          "internalType": "uint256",
          "name": "",
          "type": "uint256"
        }
      ],
      "name": "users",
      "outputs": [
        {
          "internalType": "string",
          "name": "name",
          "type": "string"
        },
        {
          "internalType": "string",
          "name": "secret",
          "type": "string"
        }
      ],
      "payable": false,
      "stateMutability": "view",
      "type": "function"
    },
    {
      "constant": false,
      "inputs": [
        {
          "internalType": "string",
          "name": "name",
          "type": "string"
        },
        {
          "internalType": "string",
          "name": "secret",
          "type": "string"
        }
      ],
      "name": "createOrganization",
      "outputs": [],
      "payable": false,
      "stateMutability": "nonpayable",
      "type": "function"
    },
    {
      "constant": false,
      "inputs": [
        {
          "internalType": "string",
          "name": "url",
          "type": "string"
        },
        {
          "internalType": "string",
          "name": "hasha",
          "type": "string"
        },
        {
          "internalType": "uint256",
          "name": "oid",
          "type": "uint256"
        },
        {
          "internalType": "uint256",
          "name": "userId",
          "type": "uint256"
        },
        {
          "internalType": "string",
          "name": "orgsecret",
          "type": "string"
        }
      ],
      "name": "issueDocument",
      "outputs": [
        {
          "internalType": "uint256",
          "name": "",
          "type": "uint256"
        }
      ],
      "payable": false,
      "stateMutability": "nonpayable",
      "type": "function"
    },
    {
      "constant": false,
      "inputs": [
        {
          "internalType": "uint256",
          "name": "index",
          "type": "uint256"
        }
      ],
      "name": "deleteDocument",
      "outputs": [],
      "payable": false,
      "stateMutability": "nonpayable",
      "type": "function"
    },
    {
      "constant": false,
      "inputs": [
        {
          "internalType": "string",
          "name": "name",
          "type": "string"
        },
        {
          "internalType": "string",
          "name": "secret",
          "type": "string"
        }
      ],
      "name": "createUser",
      "outputs": [],
      "payable": false,
      "stateMutability": "nonpayable",
      "type": "function"
    },
    {
      "constant": true,
      "inputs": [],
      "name": "getOrganization",
      "outputs": [
        {
          "internalType": "uint256",
          "name": "",
          "type": "uint256"
        }
      ],
      "payable": false,
      "stateMutability": "view",
      "type": "function"
    },
    {
      "constant": true,
      "inputs": [],
      "name": "getUser",
      "outputs": [
        {
          "internalType": "uint256",
          "name": "",
          "type": "uint256"
        }
      ],
      "payable": false,
      "stateMutability": "view",
      "type": "function"
    },
    {
      "constant": true,
      "inputs": [],
      "name": "getIssueDocumeent",
      "outputs": [
        {
          "internalType": "uint256",
          "name": "",
          "type": "uint256"
        }
      ],
      "payable": false,
      "stateMutability": "view",
      "type": "function"
    },
    {
      "constant": false,
      "inputs": [
        {
          "internalType": "string",
          "name": "userId",
          "type": "string"
        },
        {
          "internalType": "uint256",
          "name": "docIndex",
          "type": "uint256"
        }
      ],
      "name": "signDocument",
      "outputs": [],
      "payable": false,
      "stateMutability": "nonpayable",
      "type": "function"
    },
    {
      "constant": false,
      "inputs": [
        {
          "internalType": "string",
          "name": "url",
          "type": "string"
        },
        {
          "internalType": "uint256",
          "name": "oid",
          "type": "uint256"
        },
        {
          "internalType": "uint256",
          "name": "userId",
          "type": "uint256"
        },
        {
          "internalType": "uint256",
          "name": "docIndex",
          "type": "uint256"
        },
        {
          "internalType": "string",
          "name": "_hash",
          "type": "string"
        }
      ],
      "name": "verifyDocument",
      "outputs": [
        {
          "internalType": "bool",
          "name": "",
          "type": "bool"
        }
      ],
      "payable": false,
      "stateMutability": "nonpayable",
      "type": "function"
    }
  ],
  "bytecode": "0x608060405234801561001057600080fd5b506117de806100206000396000f3fe608060405234801561001057600080fd5b50600436106100b45760003560e01c8063abb8e21311610071578063abb8e21314610581578063c8370a801461059f578063d8660eb2146106c0578063e15c6f18146108d1578063e6696def14610a59578063e792dd8a14610a77576100b4565b8063046c39d2146100b9578063365b98b21461017e578063832880e71461029157806387b162b5146102af578063a0fb149714610401578063a411ef201461042f575b600080fd5b61017c600480360360408110156100cf57600080fd5b81019080803590602001906401000000008111156100ec57600080fd5b8201836020820111156100fe57600080fd5b8035906020019184600183028401116401000000008311171561012057600080fd5b91908080601f016020809104026020016040519081016040528093929190818152602001838380828437600081840152601f19601f82011690508083019250505050505050919291929080359060200190929190505050610b8a565b005b6101aa6004803603602081101561019457600080fd5b8101908080359060200190929190505050610cc8565b604051808060200180602001838103835285818151815260200191508051906020019080838360005b838110156101ee5780820151818401526020810190506101d3565b50505050905090810190601f16801561021b5780820380516001836020036101000a031916815260200191505b50838103825284818151815260200191508051906020019080838360005b83811015610254578082015181840152602081019050610239565b50505050905090810190601f1680156102815780820380516001836020036101000a031916815260200191505b5094505050505060405180910390f35b610299610e29565b6040518082815260200191505060405180910390f35b6103ff600480360360408110156102c557600080fd5b81019080803590602001906401000000008111156102e257600080fd5b8201836020820111156102f457600080fd5b8035906020019184600183028401116401000000008311171561031657600080fd5b91908080601f016020809104026020016040519081016040528093929190818152602001838380828437600081840152601f19601f8201169050808301925050505050505091929192908035906020019064010000000081111561037957600080fd5b82018360208201111561038b57600080fd5b803590602001918460018302840111640100000000831117156103ad57600080fd5b91908080601f016020809104026020016040519081016040528093929190818152602001838380828437600081840152601f19601f820116905080830192505050505050509192919290505050610e36565b005b61042d6004803603602081101561041757600080fd5b8101908080359060200190929190505050610ec5565b005b61057f6004803603604081101561044557600080fd5b810190808035906020019064010000000081111561046257600080fd5b82018360208201111561047457600080fd5b8035906020019184600183028401116401000000008311171561049657600080fd5b91908080601f016020809104026020016040519081016040528093929190818152602001838380828437600081840152601f19601f820116905080830192505050505050509192919290803590602001906401000000008111156104f957600080fd5b82018360208201111561050b57600080fd5b8035906020019184600183028401116401000000008311171561052d57600080fd5b91908080601f016020809104026020016040519081016040528093929190818152602001838380828437600081840152601f19601f820116905080830192505050505050509192919290505050610fc1565b005b610589611050565b6040518082815260200191505060405180910390f35b6105cb600480360360208110156105b557600080fd5b810190808035906020019092919050505061105d565b604051808060200185815260200184815260200180602001838103835287818151815260200191508051906020019080838360005b8381101561061b578082015181840152602081019050610600565b50505050905090810190601f1680156106485780820380516001836020036101000a031916815260200191505b50838103825284818151815260200191508051906020019080838360005b83811015610681578082015181840152602081019050610666565b50505050905090810190601f1680156106ae5780820380516001836020036101000a031916815260200191505b50965050505050505060405180910390f35b6108bb600480360360a08110156106d657600080fd5b81019080803590602001906401000000008111156106f357600080fd5b82018360208201111561070557600080fd5b8035906020019184600183028401116401000000008311171561072757600080fd5b91908080601f016020809104026020016040519081016040528093929190818152602001838380828437600081840152601f19601f8201169050808301925050505050505091929192908035906020019064010000000081111561078a57600080fd5b82018360208201111561079c57600080fd5b803590602001918460018302840111640100000000831117156107be57600080fd5b91908080601f016020809104026020016040519081016040528093929190818152602001838380828437600081840152601f19601f82011690508083019250505050505050919291929080359060200190929190803590602001909291908035906020019064010000000081111561083557600080fd5b82018360208201111561084757600080fd5b8035906020019184600183028401116401000000008311171561086957600080fd5b91908080601f016020809104026020016040519081016040528093929190818152602001838380828437600081840152601f19601f8201169050808301925050505050505091929192905050506111ca565b6040518082815260200191505060405180910390f35b610a3f600480360360a08110156108e757600080fd5b810190808035906020019064010000000081111561090457600080fd5b82018360208201111561091657600080fd5b8035906020019184600183028401116401000000008311171561093857600080fd5b91908080601f016020809104026020016040519081016040528093929190818152602001838380828437600081840152601f19601f820116905080830192505050505050509192919290803590602001909291908035906020019092919080359060200190929190803590602001906401000000008111156109b957600080fd5b8201836020820111156109cb57600080fd5b803590602001918460018302840111640100000000831117156109ed57600080fd5b91908080601f016020809104026020016040519081016040528093929190818152602001838380828437600081840152601f19601f82011690508083019250505050505050919291929050505061131d565b604051808215151515815260200191505060405180910390f35b610a616114b4565b6040518082815260200191505060405180910390f35b610aa360048036036020811015610a8d57600080fd5b81019080803590602001909291905050506114c0565b604051808060200180602001838103835285818151815260200191508051906020019080838360005b83811015610ae7578082015181840152602081019050610acc565b50505050905090810190601f168015610b145780820380516001836020036101000a031916815260200191505b50838103825284818151815260200191508051906020019080838360005b83811015610b4d578082015181840152602081019050610b32565b50505050905090810190601f168015610b7a5780820380516001836020036101000a031916815260200191505b5094505050505060405180910390f35b60006004836040518082805190602001908083835b60208310610bc25780518252602082019150602081019050602083039250610b9f565b6001836020036101000a038019825116818451168082178552505050505050905001915050908152602001604051809103902054905060068181548110610c0557fe5b906000526020600020906002020160010160008381548110610c2357fe5b90600052602060002090600402019080600181540180825580915050906001820390600052602060002090600402016000909192909190915060008201816000019080546001816001161561010002031660029004610c83929190611621565b50600182015481600101556002820154816002015560038201816003019080546001816001161561010002031660029004610cbf929190611621565b50505050505050565b60028181548110610cd557fe5b9060005260206000209060020201600091509050806000018054600181600116156101000203166002900480601f016020809104026020016040519081016040528092919081815260200182805460018160011615610100020316600290048015610d815780601f10610d5657610100808354040283529160200191610d81565b820191906000526020600020905b815481529060010190602001808311610d6457829003601f168201915b505050505090806001018054600181600116156101000203166002900480601f016020809104026020016040519081016040528092919081815260200182805460018160011615610100020316600290048015610e1f5780601f10610df457610100808354040283529160200191610e1f565b820191906000526020600020905b815481529060010190602001808311610e0257829003601f168201915b5050505050905082565b6000600280549050905090565b610e3e6116a8565b6040518060400160405280848152602001838152509050600281908060018154018082558091505090600182039060005260206000209060020201600090919290919091506000820151816000019080519060200190610e9f9291906116c2565b506020820151816001019080519060200190610ebc9291906116c2565b50505050505050565b60405180608001604052806040518060400160405280600481526020017f6e756c6c00000000000000000000000000000000000000000000000000000000815250815260200160c8815260200160c881526020016040518060400160405280600481526020017f6e756c6c0000000000000000000000000000000000000000000000000000000081525081525060008281548110610f5f57fe5b90600052602060002090600402016000820151816000019080519060200190610f899291906116c2565b5060208201518160010155604082015181600201556060820151816003019080519060200190610fba9291906116c2565b5090505050565b610fc9611742565b604051806040016040528084815260200183815250905060018190806001815401808255809150509060018203906000526020600020906002020160009091929091909150600082015181600001908051906020019061102a9291906116c2565b5060208201518160010190805190602001906110479291906116c2565b50505050505050565b6000600180549050905090565b6000818154811061106a57fe5b9060005260206000209060040201600091509050806000018054600181600116156101000203166002900480601f0160208091040260200160405190810160405280929190818152602001828054600181600116156101000203166002900480156111165780601f106110eb57610100808354040283529160200191611116565b820191906000526020600020905b8154815290600101906020018083116110f957829003601f168201915b505050505090806001015490806002015490806003018054600181600116156101000203166002900480601f0160208091040260200160405190810160405280929190818152602001828054600181600116156101000203166002900480156111c05780601f10611195576101008083540402835291602001916111c0565b820191906000526020600020905b8154815290600101906020018083116111a357829003601f168201915b5050505050905084565b6000600184815481106111d957fe5b906000526020600020906002020160010160405180828054600181600116156101000203166002900480156112455780601f10611223576101008083540402835291820191611245565b820191906000526020600020905b815481529060010190602001808311611231575b505091505060405180910390208280519060200120146112685760009050611314565b61127061175c565b60405180608001604052808881526020018681526020018581526020018781525090506000819080600181540180825580915050906001820390600052602060002090600402016000909192909190915060008201518160000190805190602001906112dd9291906116c2565b506020820151816001015560408201518160020155606082015181600301908051906020019061130e9291906116c2565b50505050505b95945050505050565b600081805190602001206000848154811061133457fe5b906000526020600020906004020160030160405180828054600181600116156101000203166002900480156113a05780601f1061137e5761010080835404028352918201916113a0565b820191906000526020600020905b81548152906001019060200180831161138c575b5050915050604051809103902014158061144657508580519060200120600084815481106113ca57fe5b906000526020600020906004020160000160405180828054600181600116156101000203166002900480156114365780601f10611414576101008083540402835291820191611436565b820191906000526020600020905b815481529060010190602001808311611422575b5050915050604051809103902014155b8061146f5750836000848154811061145a57fe5b90600052602060002090600402016002015414155b806114985750846000848154811061148357fe5b90600052602060002090600402016001015414155b156114a657600090506114ab565b600190505b95945050505050565b60008080549050905090565b600181815481106114cd57fe5b9060005260206000209060020201600091509050806000018054600181600116156101000203166002900480601f0160208091040260200160405190810160405280929190818152602001828054600181600116156101000203166002900480156115795780601f1061154e57610100808354040283529160200191611579565b820191906000526020600020905b81548152906001019060200180831161155c57829003601f168201915b505050505090806001018054600181600116156101000203166002900480601f0160208091040260200160405190810160405280929190818152602001828054600181600116156101000203166002900480156116175780601f106115ec57610100808354040283529160200191611617565b820191906000526020600020905b8154815290600101906020018083116115fa57829003601f168201915b5050505050905082565b828054600181600116156101000203166002900490600052602060002090601f016020900481019282601f1061165a5780548555611697565b8280016001018555821561169757600052602060002091601f016020900482015b8281111561169657825482559160010191906001019061167b565b5b5090506116a49190611784565b5090565b604051806040016040528060608152602001606081525090565b828054600181600116156101000203166002900490600052602060002090601f016020900481019282601f1061170357805160ff1916838001178555611731565b82800160010185558215611731579182015b82811115611730578251825591602001919060010190611715565b5b50905061173e9190611784565b5090565b604051806040016040528060608152602001606081525090565b6040518060800160405280606081526020016000815260200160008152602001606081525090565b6117a691905b808211156117a257600081600090555060010161178a565b5090565b9056fea265627a7a723158204505b73d9410f8f239afcb2f3c7a2ce67137f85c5482dc47bede98700ac240fb64736f6c63430005100032",
  "source": "pragma solidity >=0.4.0 <0.7.0;\r\n\r\ncontract OrganizationList {\r\n    //user user signed relations are here\r\n    struct DocumentList {\r\n        uint256 userid;\r\n        Document[] signedDocs;\r\n    }\r\n    struct Document {\r\n        string url;\r\n        uint256 oid;\r\n        uint256 userId;\r\n        string hasha;\r\n    }\r\n    struct Organization {\r\n        string name;\r\n        string secret;\r\n    }\r\n    struct User {\r\n        string name;\r\n        string secret;\r\n    }\r\n\r\n    //containers\r\n    Document[] public issuedDocuments;\r\n    Organization[] public organizations;\r\n    User[] public users;\r\n\r\n    //Other useful maps\r\n    // to return corresponding index of a unique string in the array of organizations\r\n    mapping(string => uint256) corresOrg;\r\n    mapping(string => uint256) corresUser;\r\n    mapping(string => uint256) corresDocument;\r\n\r\n    //class methods\r\n\r\n    function createOrganization(string memory name, string memory secret)\r\n        public\r\n    {\r\n        Organization memory newOrg = Organization(name, secret);\r\n        organizations.push(newOrg);\r\n    }\r\n\r\n    //Organization related functions\r\n    function issueDocument(\r\n        string memory url,\r\n        string memory hasha,\r\n        uint256 oid,\r\n        uint256 userId,\r\n        string memory orgsecret\r\n    ) public returns (uint256) {\r\n        if (\r\n            keccak256(bytes(orgsecret)) !=\r\n            keccak256(bytes(organizations[oid].secret))\r\n        ) {\r\n            return 0;\r\n        }\r\n\r\n        Document memory newDoc = Document(url, oid, userId, hasha);\r\n        issuedDocuments.push(newDoc);\r\n    }\r\n\r\n    function deleteDocument(uint256 index) public {\r\n        issuedDocuments[index] = Document(\"null\", 200, 200, \"null\");\r\n    }\r\n\r\n    //User related functions\r\n    // uint is the user id, DocumentList is the list of documents he has signed\r\n    DocumentList[] signedAgreement;\r\n\r\n    function createUser(\r\n        string memory name,\r\n        string memory secret\r\n    ) public {\r\n         User memory newUser = User(name, secret);\r\n         users.push(newUser);\r\n    }\r\n    function getOrganization() public view returns (uint256) {\r\n        return organizations.length;\r\n    }\r\n    function getUser() public view returns (uint256) {\r\n        return users.length;\r\n    }\r\n    function getIssueDocumeent() public view returns (uint256)\r\n    {\r\n        return issuedDocuments.length;\r\n    }\r\n\r\n    //document must already be issued before someone signs it\r\n    function signDocument(string memory userId, uint256 docIndex) public {\r\n        uint256 userIndex = corresUser[userId];\r\n        signedAgreement[userIndex].signedDocs.push(issuedDocuments[docIndex]);\r\n    }\r\n\r\n    //General functions\r\n\r\n    function verifyDocument(\r\n        string memory url,\r\n        uint256 oid,\r\n        uint256 userId,\r\n        uint256 docIndex,\r\n        string memory _hash\r\n    ) public returns (bool) {\r\n        if (\r\n            keccak256(bytes(issuedDocuments[docIndex].hasha)) !=\r\n            keccak256(bytes(_hash)) ||\r\n            keccak256(bytes(issuedDocuments[docIndex].url)) !=\r\n            keccak256(bytes(url)) ||\r\n            (issuedDocuments[docIndex].userId != userId) ||\r\n            (issuedDocuments[docIndex].oid != oid)\r\n        ) {\r\n            return false;\r\n        }\r\n        return true;\r\n    }\r\n}\r\n",
  "sourcePath": "F:\\DecDocs-blockchain\\contracts\\OrganizationList.sol",
  "compiler": {
    "name": "solc",
    "version": "0.5.16+commit.9c3226ce.Emscripten.clang"
  },
  "schemaVersion": "3.1.0",
  "updatedAt": "2020-07-17T11:34:08.812Z",
  "networkType": "ethereum",
  "devdoc": {
    "methods": {}
  },
  "userdoc": {
    "methods": {}
  }
}