{
  "contractName": "User",
  "abi": [
    {
      "inputs": [
        {
          "internalType": "string",
          "name": "userId",
          "type": "string"
        }
      ],
      "payable": false,
      "stateMutability": "nonpayable",
      "type": "constructor"
    },
    {
      "constant": true,
      "inputs": [],
      "name": "id",
      "outputs": [
        {
          "internalType": "string",
          "name": "",
          "type": "string"
        }
      ],
      "payable": false,
      "stateMutability": "view",
      "type": "function"
    }
  ],
  "bytecode": "0x608060405234801561001057600080fd5b506040516103453803806103458339818101604052602081101561003357600080fd5b810190808051604051939291908464010000000082111561005357600080fd5b8382019150602082018581111561006957600080fd5b825186600182028301116401000000008211171561008657600080fd5b8083526020830192505050908051906020019080838360005b838110156100ba57808201518184015260208101905061009f565b50505050905090810190601f1680156100e75780820380516001836020036101000a031916815260200191505b50604052505050806000908051906020019061010492919061010b565b50506101b0565b828054600181600116156101000203166002900490600052602060002090601f016020900481019282601f1061014c57805160ff191683800117855561017a565b8280016001018555821561017a579182015b8281111561017957825182559160200191906001019061015e565b5b509050610187919061018b565b5090565b6101ad91905b808211156101a9576000816000905550600101610191565b5090565b90565b610186806101bf6000396000f3fe608060405234801561001057600080fd5b506004361061002b5760003560e01c8063af640d0f14610030575b600080fd5b6100386100b3565b6040518080602001828103825283818151815260200191508051906020019080838360005b8381101561007857808201518184015260208101905061005d565b50505050905090810190601f1680156100a55780820380516001836020036101000a031916815260200191505b509250505060405180910390f35b60008054600181600116156101000203166002900480601f0160208091040260200160405190810160405280929190818152602001828054600181600116156101000203166002900480156101495780601f1061011e57610100808354040283529160200191610149565b820191906000526020600020905b81548152906001019060200180831161012c57829003601f168201915b50505050508156fea265627a7a7231582022aa90e17ee6e7756db68e3632f5860a021265f1d68f459231f517cfcfbab24c64736f6c63430005100032",
  "source": "pragma solidity >=0.4.0 <0.7.0;\r\n\r\n//user should be able to search his file by a name\r\n//and get the corresponding int of that file which\r\n//uniquely identifies it\r\n\r\ncontract User {\r\n    string public id;\r\n\r\n    constructor(string memory userId) public {\r\n        id = userId;\r\n    }\r\n}\r\n\r\n//Notes:\r\n// User should be able to request for approval of new contract from the organization through the frontend and rest apis provided,\r\n// Its not possible from the contracts\r\n//Also from there only we will be able to call issueContract.\r\n\r\n//Also user(the employer needs to make request to from the client to trigger the function organization.verifydoc to actually verify this.)\r\n",
  "sourcePath": "E:\\Repos\\Decdocs-complete\\Decdocs-blockchain\\contracts\\User.sol",
  "compiler": {
    "name": "solc",
    "version": "0.5.16+commit.9c3226ce.Emscripten.clang"
  },
  "schemaVersion": "3.0.23",
  "updatedAt": "2020-06-29T10:33:05.489Z",
  "networkType": "ethereum",
  "devdoc": {
    "methods": {}
  },
  "userdoc": {
    "methods": {}
  }
}